:100000000C942A000C9454030C947D030C94A603C6
:100010000C9447000C9447000C9471050C941F0538
:100020000C9448050C94F6040C94CD040C94A40490
:100030000C947B040C94C3050C94EC050C949A0569
:100040000C94B3010C9447000C9447000C94520498
:100050000C94470011241FBECFE5D8E0DEBFCDBF12
:1000600010E0A0E6B0E0E0EBFCE002C005900D92ED
:10007000A038B107D9F720E0A0E8B0E001C01D9298
:10008000AE39B207E1F70E9489010C9456060C9430
:10009000000080E40C94CF031F93CF93DF93EC0117
:1000A000162F0E94DC03882311F080E016C0CE01D9
:1000B00088279770892F80650E94FD038111F5CFF5
:1000C0008C2F0E9425048111F0CF812F0E942504DE
:1000D0008111EBCF0E944B0481E0DF91CF911F9102
:1000E0000895EF92FF920F931F93CF938C017B01A2
:1000F0000E94DC03882311F080E020C0C80188271B
:100100009770C92FC0658C2F0E94FD038111F4CF19
:10011000802F0E9425048111EFCF0E94EC038111F2
:10012000EBCF8C2F0E9411048111E6CFC7010E94F2
:1001300034048111E1CF0E944B0481E0CF911F91E3
:100140000F91FF90EF900895682F83E00E94310394
:1001500060E085E00E94B00260E086E00E94B002AC
:1001600061E087E00E94B0028FEC97E00197F1F721
:1001700000C0000060E087E00E94B0028FEC97E0D2
:100180000197F1F700C000000895682F83E00E94F6
:10019000310361E085E00E94B00260E086E00E94E9
:1001A000B00261E087E00E94B0028FEC97E0019717
:1001B000F1F700C0000060E087E00E94B0028FEC21
:1001C00097E00197F1F700C0000008958FE39CE9E4
:1001D0000197F1F700C0000088E30E94A4008CE0C2
:1001E0000E94A40081E00E94A4008FE99FE0019793
:1001F000F1F700C000000895813039F058F08230E6
:1002000031F0833031F46C5A05C0605C03C06C5E21
:1002100001C060E0862F80680C94A4004F925F922A
:100220006F927F92AF92BF92CF92DF92EF92FF9246
:100230001F93CF93DF93CDB7DEB72A970FB6F8940D
:10024000DEBF0FBECDBF6B017C016115710581055D
:100250009105B1F480E32A960FB6F894DEBF0FBE85
:10026000CDBFDF91CF911F91FF90EF90DF90CF90A6
:10027000BF90AF907F906F905F904F900C94C500AF
:1002800097FF0BC08DE20E94C500F094E094D094DB
:10029000C094C11CD11CE11CF11C10E09AE0492E55
:1002A000512C612C712CAA24A394B12CAC0EBD1E30
:1002B000A10EB11CC701B601A30192010E9437062D
:1002C000605DF501608369017A011F5FC114D1048B
:1002D000E104F10441F7112341F0FE01E10FF11DAA
:1002E00080810E94C5001150F6CF2A960FB6F8946F
:1002F000DEBF0FBECDBFDF91CF911F91FF90EF907A
:10030000DF90CF90BF90AF907F906F905F904F90B5
:100310000895CF93DF931F92CDB7DEB778940E94F4
:1003200041030E94E6000E94490019826AE080E0D1
:1003300092E00E944C008FE19EE40197F1F700C02B
:100340000000BE016F5F7F4F80E092E00E9471006D
:1003500060E082E00E94FC00698170E080E090E053
:100360000E940E01FFCF1F920F920FB60F92112421
:100370002F933F934F935F936F937F938F939F93AD
:10038000AF93BF93EF93FF93E0918000F0918100D2
:10039000309709F00995FF91EF91BF91AF919F912F
:1003A0008F917F916F915F914F913F912F910F901E
:1003B0000FBE0F901F901895982F97708695869571
:1003C00086956130E9F120F0623009F479C0089532
:1003D000813091F028F08230D9F0833029F10895EE
:1003E0004AB321E030E0B90102C0660F771F9A9549
:1003F000E2F7CB01842B38C047B321E030E0B901EC
:1004000002C0660F771F9A95E2F7CB01842B3AC0A2
:1004100044B321E030E0B90102C0660F771F9A951E
:10042000E2F7CB01842B3CC041B321E030E0B901BD
:1004300002C0660F771F9A95E2F7CB01842B3EC06E
:100440008130A1F028F08230F9F0833059F108951D
:100450004AB321E030E0B90102C0660F771F9A95D8
:10046000E2F7CB01809584238ABB089547B321E04E
:1004700030E0B90102C0660F771F9A95E2F7CB0111
:100480008095842387BB089544B321E030E0B9010F
:1004900002C0660F771F9A95E2F7CB0180958423FF
:1004A00084BB089541B321E030E0B90102C0660F7A
:1004B000771F9A95E2F7CB018095842381BB08953D
:1004C0008130C1F028F0823039F18330B9F10895DC
:1004D0004AB321E030E0B90102C0660F771F9A9558
:1004E000E2F7CB01962F909594239ABB9BB3892B6F
:1004F0008BBB089547B321E030E0B90102C0660F1D
:10050000771F9A95E2F7CB01962F9095942397BB8E
:1005100098B3892B88BB089544B321E030E0B9013A
:1005200002C0660F771F9A95E2F7CB01962F909540
:10053000942394BB95B3892B85BB089541B321E0E7
:1005400030E0B90102C0660F771F9A95E2F7CB0140
:10055000962F9095942391BB92B3892B82BB0895DB
:10056000982F97708695869586956130C1F5813074
:1005700091F028F08230D9F0833029F108954BB3FF
:1005800021E030E0B90102C0660F771F9A95E2F7CB
:10059000CB01842B3AC048B321E030E0B90102C05E
:1005A000660F771F9A95E2F7CB01842B3CC045B3C9
:1005B00021E030E0B90102C0660F771F9A95E2F79B
:1005C000CB01842B3EC042B321E030E0B90102C030
:1005D000660F771F9A95E2F7CB01842B40C061111B
:1005E0003FC08130A1F028F08230F9F0833059F11A
:1005F00008954BB321E030E0B90102C0660F771FC8
:100600009A95E2F7CB01809584238BBB089548B37C
:1006100021E030E0B90102C0660F771F9A95E2F73A
:10062000CB018095842388BB089545B321E030E059
:10063000B90102C0660F771F9A95E2F7CB0180954A
:10064000842385BB089542B321E030E0B90102C0A4
:10065000660F771F9A95E2F7CB018095842382BBC2
:100660000895813041F028F0823039F0833039F03C
:1006700008956BBB089568BB089565BB089562BB80
:1006800008950F931F93CF9300E610E0C0E0F801A8
:1006900061918F018C2F0E94DC01CF5FC032B9F7CE
:1006A000CF911F910F9108951F920F920FB60F9245
:1006B00011242F933F934F935F936F937F938F9367
:1006C0009F93AF93BF93EF93FF93E0918600F091D8
:1006D0008700309709F00995FF91EF91BF91AF9195
:1006E0009F918F917F916F915F914F913F912F914A
:1006F0000F900FBE0F901F9018951F920F920FB67C
:100700000F9211242F933F934F935F936F937F9397
:100710008F939F93AF93BF93EF93FF93E0918400E8
:10072000F0918500309709F00995FF91EF91BF9105
:10073000AF919F918F917F916F915F914F913F9179
:100740002F910F900FBE0F901F9018951F920F9230
:100750000FB60F9211242F933F934F935F936F9394
:100760007F938F939F93AF93BF93EF93FF93E0910A
:100770008200F0918300309709F00995FF91EF9185
:10078000BF91AF919F918F917F916F915F914F91A9
:100790003F912F910F900FBE0F901F9018950898C2
:1007A000099892E090B9880F82B986B7806486BFB5
:1007B00086B7846086BF089586B7806286BF86B795
:1007C000806886BF06B607FEFDCF91B1987F81E0B5
:1007D000983009F480E0089586B7806286BF86B7B6
:1007E000806886BF06B607FEFDCF81B1887F803165
:1007F00011F082E0089580E00895880F83B9189879
:1008000086B78F7D86BF86B7806886BF06B607FE2F
:10081000FDCF81B1887F883111F083E0089580E0B9
:100820000895880F83B9189A86B78F7D86BF86B7DB
:10083000806886BF06B607FEFDCF81B1887F803411
:1008400011F084E0089580E0089583B986B7806848
:1008500086BF06B607FEFDCF81B1887F883211F0D2
:1008600085E0089580E00895FC0196B79F7B96BFD0
:1008700096B7906896BF06B607FEFDCF91B1987FF8
:10088000983521F483B1808380E001C086E096B77B
:10089000906496BF089586B7806186BF86B78068EA
:1008A00086BF08951F920F920FB60F9211242F93B7
:1008B0003F934F935F936F937F938F939F93AF93E8
:1008C000BF93EF93FF93E0918800F09189003097F8
:1008D00009F00995FF91EF91BF91AF919F918F9191
:1008E0007F916F915F914F913F912F910F900FBE2C
:1008F0000F901F9018951F920F920FB60F92112410
:100900002F933F934F935F936F937F938F939F9317
:10091000AF93BF93EF93FF93E0918A00F0918B0028
:10092000309709F00995FF91EF91BF91AF919F9199
:100930008F917F916F915F914F913F912F910F9088
:100940000FBE0F901F9018951F920F920FB60F9227
:1009500011242F933F934F935F936F937F938F93C4
:100960009F93AF93BF93EF93FF93E0919600F09125
:100970009700309709F00995FF91EF91BF91AF91E2
:100980009F918F917F916F915F914F913F912F91A7
:100990000F900FBE0F901F9018951F920F920FB6D9
:1009A0000F9211242F933F934F935F936F937F93F5
:1009B0008F939F93AF93BF93EF93FF93E091940036
:1009C000F0919500309709F00995FF91EF91BF9153
:1009D000AF919F918F917F916F915F914F913F91D7
:1009E0002F910F900FBE0F901F9018951F920F928E
:1009F0000FB60F9211242F933F934F935F936F93F2
:100A00007F938F939F93AF93BF93EF93FF93E09167
:100A10009200F0919300309709F00995FF91EF91C2
:100A2000BF91AF919F918F917F916F915F914F9106
:100A30003F912F910F900FBE0F901F9018951F920E
:100A40000F920FB60F9211242F933F934F935F9302
:100A50006F937F938F939F93AF93BF93EF93FF9386
:100A6000E0919000F0919100309709F00995FF9185
:100A7000EF91BF91AF919F918F917F916F915F9116
:100A80004F913F912F910F900FBE0F901F9018958F
:100A90001F920F920FB60F9211242F933F934F93F3
:100AA0005F936F937F938F939F93AF93BF93EF93D6
:100AB000FF93E0918E00F0918F00309709F0099537
:100AC000FF91EF91BF91AF919F918F917F916F9126
:100AD0005F914F913F912F910F900FBE0F901F90FC
:100AE00018951F920F920FB60F9211242F933F93D8
:100AF0004F935F936F937F938F939F93AF93BF9326
:100B0000EF93FF93E0918C00F0918D00309709F006
:100B10000995FF91EF91BF91AF919F918F917F9137
:100B20006F915F914F913F912F910F900FBE0F905A
:100B30001F9018951F920F920FB60F9211242F93AA
:100B40003F934F935F936F937F938F939F93AF9355
:100B5000BF93EF93FF93E0919C00F0919D0030973D
:100B600009F00995FF91EF91BF91AF919F918F91FE
:100B70007F916F915F914F913F912F910F900FBE99
:100B80000F901F9018951F920F920FB60F9211247D
:100B90002F933F934F935F936F937F938F939F9385
:100BA000AF93BF93EF93FF93E0919A00F0919B0076
:100BB000309709F00995FF91EF91BF91AF919F9107
:100BC0008F917F916F915F914F913F912F910F90F6
:100BD0000FBE0F901F9018951F920F920FB60F9295
:100BE00011242F933F934F935F936F937F938F9332
:100BF0009F93AF93BF93EF93FF93E0919800F09191
:100C00009900309709F00995FF91EF91BF91AF914D
:100C10009F918F917F916F915F914F913F912F9114
:100C20000F900FBE0F901F901895A1E21A2EAA1BCD
:100C3000BB1BFD010DC0AA1FBB1FEE1FFF1FA2178C
:100C4000B307E407F50720F0A21BB30BE40BF50B89
:100C5000661F771F881F991F1A9469F76095709512
:100C6000809590959B01AC01BD01CF010895052EA3
:100C700097FB1EF400940E944E0657FD07D00E9479
:100C8000150607FC03D04EF40C944E065095409583
:100C9000309521953F4F4F4F5F4F08959095809528
:100CA000709561957F4F8F4F9F4F0895F894FFCFB8
:100CB0000000000000000000000000000000000034
:100CC0000101000000000000000000000000000022
:00000001FF
