:100000000C942A000C943F000C943F000C943F0089
:100010000C943F000C943F000C943F000C943F0064
:100020000C943F000C943F000C943F000C943F0054
:100030000C943F000C943F000C943F000C943F0044
:100040000C943F000C943F000C943F000C943F0034
:100050000C943F0011241FBECFE5D8E0DEBFCDBF1A
:1000600010E0A0E6B0E0E6ECF6E002C005900D92EC
:10007000A038B107D9F70E9456000C9461030C9484
:100080000000CF93DF93CAE06C2F0E945503D82F56
:10009000692F82E00E94F1028D2F6C2F0E94550380
:1000A000692F82E0DF91CF910C9411030E944203EB
:1000B00060E089E00E941E02CEE18C2F0E94410088
:1000C000C1115FC088E00E949F0204EF11E08FEC35
:1000D00097E00197F1F700C0000081E00E94D40290
:1000E000811103C060E088E0E5CF82E00E94D40285
:1000F000811142C082E00E94D4028823D9F360E0DB
:1001000088E00E941E0282E00E94D402813059F5EC
:1001100089E00E949F029FEF20E782E091502040FB
:100120008040E1F700C000008C2F0E94410080E079
:100130000E94D402811105C0CF5FC43651F4C0E0E3
:1001400008C081E00E94D4028111DDCFC15008F4C3
:10015000C3E69FEF23EF81E0915020408040E1F71C
:1001600000C00000D0CF82E00E94D4028823D9F3DF
:1001700060E089E00E941E020150110909F0A7CF3A
:100180009CCF80E00E94D40281113AC080E00E949E
:10019000D4028823D9F38C2F0E94410004EF11E090
:1001A000D0E08FEC97E00197F1F700C0000080E00D
:1001B0000E94D402811106C080E00E94D4028823EC
:1001C000D9F31EC081E00E94D402811107C081E0F2
:1001D0000E94D4028823D9F3CEE1D1E082E00E94CC
:1001E000D402811106C082E00E94D4028823D9F390
:1001F00007C001501109A9F6D13011F0C15059F6CC
:1002000081E00E94D402811101C0CEE182E00E940F
:10021000D402811152CF82E00E94D4028823D9F304
:1002200082E00E94D402813059F589E00E949F0249
:100230009FEF20E782E0915020408040E1F700C02E
:1002400000008C2F0E94410080E00E94D4028111A6
:1002500005C0CF5FC43651F4C0E008C081E00E9401
:10026000D4028111DDCFC15008F4C3E69FEF23EF24
:1002700081E0915020408040E1F700C00000D0CFE5
:1002800082E00E94D4028823D9F360E089E00E94D2
:100290001E0213CF982F97708695869586956130AC
:1002A000E9F120F0623009F479C00895813091F0CD
:1002B00028F08230D9F0833029F108954AB321E043
:1002C00030E0B90102C0660F771F9A95E2F7CB01C3
:1002D000842B38C047B321E030E0B90102C0660F7B
:1002E000771F9A95E2F7CB01842B3AC044B321E003
:1002F00030E0B90102C0660F771F9A95E2F7CB0193
:10030000842B3CC041B321E030E0B90102C0660F4C
:10031000771F9A95E2F7CB01842B3EC08130A1F084
:1003200028F08230F9F0833059F108954AB321E082
:1003300030E0B90102C0660F771F9A95E2F7CB0152
:10034000809584238ABB089547B321E030E0B9014A
:1003500002C0660F771F9A95E2F7CB018095842340
:1003600087BB089544B321E030E0B90102C0660FB5
:10037000771F9A95E2F7CB018095842384BB08957B
:1003800041B321E030E0B90102C0660F771F9A95B2
:10039000E2F7CB018095842381BB08958130C1F0C1
:1003A00028F0823039F18330B9F108954AB321E061
:1003B00030E0B90102C0660F771F9A95E2F7CB01D2
:1003C000962F909594239ABB9BB3892B8BBB089552
:1003D00047B321E030E0B90102C0660F771F9A955C
:1003E000E2F7CB01962F9095942397BB98B3892B76
:1003F00088BB089544B321E030E0B90102C0660F24
:10040000771F9A95E2F7CB01962F9095942394BB92
:1004100095B3892B85BB089541B321E030E0B90144
:1004200002C0660F771F9A95E2F7CB01962F909541
:10043000942391BB92B3892B82BB0895982F977018
:100440008695869586956130C1F5813091F028F0CA
:100450008230D9F0833029F108954BB321E030E0A8
:10046000B90102C0660F771F9A95E2F7CB01842B82
:100470003AC048B321E030E0B90102C0660F771FEF
:100480009A95E2F7CB01842B3CC045B321E030E0E4
:10049000B90102C0660F771F9A95E2F7CB01842B52
:1004A0003EC042B321E030E0B90102C0660F771FC1
:1004B0009A95E2F7CB01842B40C061113FC0813097
:1004C000A1F028F08230F9F0833059F108954BB350
:1004D00021E030E0B90102C0660F771F9A95E2F77C
:1004E000CB01809584238BBB089548B321E030E095
:1004F000B90102C0660F771F9A95E2F7CB0180958C
:10050000842388BB089545B321E030E0B90102C0DF
:10051000660F771F9A95E2F7CB018095842385BB00
:10052000089542B321E030E0B90102C0660F771FA1
:100530009A95E2F7CB018095842382BB0895282FFA
:100540002770869586958695813081F028F08230D7
:10055000B9F08330F9F008953BB381E090E001C039
:10056000880F2A95EAF783278BBB089538B381E07B
:1005700090E001C0880F2A95EAF7832788BB089589
:1005800035B381E090E001C0880F2A95EAF7832710
:1005900085BB089532B381E090E001C0880F2A95B1
:1005A000EAF7832782BB0895282F277086958695C2
:1005B0008695813049F030F0823041F0833079F413
:1005C00080B305C089B303C086B301C083B390E094
:1005D00002C0959587952A95E2F78170089580E08D
:1005E0000895813061F028F0823079F0833099F0FD
:1005F00008958BB3807F6F70682B6BBB089588B3B1
:10060000807F6F70682B68BB089585B3807F6F70A3
:10061000682B65BB089582B3807F6F70682B62BBC7
:100620000895962F813081F028F08230B9F0833020
:10063000F9F008956BB3862F8F7020E1929FB0017F
:100640001124682B6BBB089568B3862F8F7020E14F
:10065000929FB0011124682B68BB089565B3862F63
:100660008F7020E1929FB0011124682B65BB089523
:1006700062B3862F8F7020E1929FB0011124682B06
:1006800062BB08950F931F93CF9300E610E0C0E084
:10069000F80161918F018C2F0E944A01CF5FC03217
:1006A000B9F7CF911F910F910895991B79E004C07C
:1006B000991F961708F0961B881F7A95C9F78095A1
:0606C0000895F894FFCF3D
:1006C600020202000000000000000000000000001E
:1006D6000000000000000000000000000000000014
:00000001FF
