:100000000C942A000C943F000C943F000C943F0089
:100010000C943F000C943F000C943F000C943F0064
:100020000C943F000C943F000C943F000C943F0054
:100030000C943F000C943F000C943F000C943F0044
:100040000C943F000C943F000C943F000C943F0034
:100050000C943F0011241FBECFE5D8E0DEBFCDBF1A
:1000600010E0A0E6B0E0E4EEF2E002C005900D92F0
:10007000A038B107D9F70E9445000C9470010C9488
:100080000000682F81E00C942C010E945D01C0E00B
:100090008C2F0E9441002FEF89E698E1215080408B
:1000A0009040E1F700C00000CF5FC03189F7EFCF8B
:1000B000982F97708695869586956130E9F120F0A6
:1000C000623009F479C00895813091F028F08230CF
:1000D000D9F0833029F108954AB321E030E0B90125
:1000E00002C0660F771F9A95E2F7CB01842B38C0C8
:1000F00047B321E030E0B90102C0660F771F9A953F
:10010000E2F7CB01842B3AC044B321E030E0B901DF
:1001100002C0660F771F9A95E2F7CB01842B3CC093
:1001200041B321E030E0B90102C0660F771F9A9514
:10013000E2F7CB01842B3EC08130A1F028F0823061
:10014000F9F0833059F108954AB321E030E0B90164
:1001500002C0660F771F9A95E2F7CB018095842342
:100160008ABB089547B321E030E0B90102C0660FB1
:10017000771F9A95E2F7CB018095842387BB08957A
:1001800044B321E030E0B90102C0660F771F9A95B1
:10019000E2F7CB018095842384BB089541B321E02D
:1001A00030E0B90102C0660F771F9A95E2F7CB01E4
:1001B0008095842381BB08958130C1F028F082307E
:1001C00039F18330B9F108954AB321E030E0B90143
:1001D00002C0660F771F9A95E2F7CB01962F909594
:1001E00094239ABB9BB3892B8BBB089547B321E023
:1001F00030E0B90102C0660F771F9A95E2F7CB0194
:10020000962F9095942397BB98B3892B88BB08951C
:1002100044B321E030E0B90102C0660F771F9A9520
:10022000E2F7CB01962F9095942394BB95B3892B3D
:1002300085BB089541B321E030E0B90102C0660FEB
:10024000771F9A95E2F7CB01962F9095942391BB57
:1002500092B3892B82BB0895962F813081F028F0CC
:100260008230B9F08330F9F008956BB3862F8F7028
:1002700020E1929FB0011124682B6BBB089568B3F5
:10028000862F8F7020E1929FB0011124682B68BBEC
:10029000089565B3862F8F7020E1929FB0011124DD
:1002A000682B65BB089562B3862F8F7020E1929F03
:1002B000B0011124682B62BB08950F931F93CF9355
:1002C00000E610E0C0E0F80161918F018C2F0E94E0
:1002D0005800CF5FC032B9F7CF911F910F910895A9
:0402E000F894FFCFC0
:1002E400000000000000000000000000000000000A
:1002F40000000000000000000000000000000000FA
:00000001FF
