:100000000C942A000C942E030C9457030C94800338
:100010000C9447000C9447000C94F1040C949F043A
:100020000C94C8040C9476040C944D040C94240491
:100030000C94FB030C9443050C946C050C941A056A
:100040000C948D010C94D2030C9447000C94A903DA
:100050000C94470011241FBECFE5D8E0DEBFCDBF12
:1000600010E0A0E6B0E0EEECFBE002C005900D92DF
:10007000A438B107D9F720E0A4E8B0E001C01D9290
:10008000A43AB207E1F70E9441010C94E5050C94F3
:100090000000682F83E00E940B0360E085E00E946F
:1000A0008A0260E086E00E948A0261E087E00E94A6
:1000B0008A028FEC97E00197F1F700C0000060E042
:1000C00087E00E948A028FEC97E00197F1F700C069
:1000D00000000895682F83E00E940B0361E085E033
:1000E0000E948A0260E086E00E948A0261E087E066
:1000F0000E948A028FEC97E00197F1F700C00000A0
:1001000060E087E00E948A028FEC97E00197F1F7A8
:1001100000C0000008958FE39CE90197F1F700C04B
:10012000000088E30E9449008CE00E94490081E0C1
:100130000E9449008FE99FE00197F1F700C000009D
:1001400008950F931F93CF938C01C0E0F801EC0F3B
:10015000F11D8081882321F00E946A00CF5FF6CFD5
:10016000CF911F910F910895813039F058F082306E
:1001700031F0833031F46C5A05C0605C03C06C5EB2
:1001800001C060E0862F80680C9449004F925F9216
:100190006F927F92AF92BF92CF92DF92EF92FF92D7
:1001A0001F93CF93DF93CDB7DEB72A970FB6F8949E
:1001B000DEBF0FBECDBF6B017C01611571058105EE
:1001C0009105B1F480E32A960FB6F894DEBF0FBE16
:1001D000CDBFDF91CF911F91FF90EF90DF90CF9037
:1001E000BF90AF907F906F905F904F900C946A009B
:1001F00097FF0BC08DE20E946A00F094E094D094C7
:10020000C094C11CD11CE11CF11C10E09AE0492EE5
:10021000512C612C712CAA24A394B12CAC0EBD1EC0
:10022000A10EB11CC701B601A30192010E94B7053E
:10023000605DF501608369017A011F5FC114D1041B
:10024000E104F10441F7112341F0FE01E10FF11D3A
:1002500080810E946A001150F6CF2A960FB6F8945A
:10026000DEBF0FBECDBFDF91CF911F91FF90EF900A
:10027000DF90CF90BF90AF907F906F905F904F9046
:10028000089578940E941B030E948B0066E082E030
:100290000E946A0188E5C82E82E0D82EE12CF12C5C
:1002A00080E00E947F01EC0160E080E00E94B400E9
:1002B0009E01A6E9B0E00E94D605A70196010E9422
:1002C0009505CA01B9010E94C60080E690E00E942F
:1002D000A100E6CF813041F028F0823039F43E9A17
:1002E0003F9A04C03E9801C03E9A3F9886B1887FED
:1002F00086B986B1682B66B93D98379A089597B14B
:10030000907E97B997B18F71982B97B9369A369995
:10031000FECF84B195B1937008951F920F920FB6DE
:100320000F9211242F933F934F935F936F937F937B
:100330008F939F93AF93BF93EF93FF93E0918400CC
:10034000F0918500309709F00995FF91EF91BF91E9
:10035000AF919F918F917F916F915F914F913F915D
:100360002F910F900FBE0F901F901895982F977098
:100370008695869586956130E9F120F0623009F422
:1003800079C00895813091F028F08230D9F083301F
:1003900029F108954AB321E030E0B90102C0660FA7
:1003A000771F9A95E2F7CB01842B38C047B321E041
:1003B00030E0B90102C0660F771F9A95E2F7CB01D2
:1003C000842B3AC044B321E030E0B90102C0660F8B
:1003D000771F9A95E2F7CB01842B3CC041B321E013
:1003E00030E0B90102C0660F771F9A95E2F7CB01A2
:1003F000842B3EC08130A1F028F08230F9F08330A8
:1004000059F108954AB321E030E0B90102C0660F06
:10041000771F9A95E2F7CB01809584238ABB0895D4
:1004200047B321E030E0B90102C0660F771F9A950B
:10043000E2F7CB018095842387BB089544B321E084
:1004400030E0B90102C0660F771F9A95E2F7CB0141
:100450008095842384BB089541B321E030E0B90145
:1004600002C0660F771F9A95E2F7CB01809584232F
:1004700081BB08958130C1F028F0823039F183309A
:10048000B9F108954AB321E030E0B90102C0660F26
:10049000771F9A95E2F7CB01962F909594239ABBFC
:1004A0009BB3892B8BBB089547B321E030E0B901A2
:1004B00002C0660F771F9A95E2F7CB01962F9095B1
:1004C000942397BB98B3892B88BB089544B321E04C
:1004D00030E0B90102C0660F771F9A95E2F7CB01B1
:1004E000962F9095942394BB95B3892B85BB089543
:1004F00041B321E030E0B90102C0660F771F9A9541
:10050000E2F7CB01962F9095942391BB92B3892B60
:1005100082BB0895982F9770869586958695613051
:10052000C1F5813091F028F08230D9F0833029F183
:1005300008954BB321E030E0B90102C0660F771F88
:100540009A95E2F7CB01842B3AC048B321E030E022
:10055000B90102C0660F771F9A95E2F7CB01842B91
:100560003CC045B321E030E0B90102C0660F771FFF
:100570009A95E2F7CB01842B3EC042B321E030E0F4
:10058000B90102C0660F771F9A95E2F7CB01842B61
:1005900040C061113FC08130A1F028F08230F9F0F5
:1005A000833059F108954BB321E030E0B90102C026
:1005B000660F771F9A95E2F7CB01809584238BBB5A
:1005C000089548B321E030E0B90102C0660F771FFB
:1005D0009A95E2F7CB018095842388BB089545B3B3
:1005E00021E030E0B90102C0660F771F9A95E2F76B
:1005F000CB018095842385BB089542B321E030E090
:10060000B90102C0660F771F9A95E2F7CB0180957A
:10061000842382BB0895813041F028F0823039F084
:10062000833039F008956BBB089568BB089565BBAE
:10063000089562BB08950F931F93CF9304E610E0D3
:10064000C0E0F80161918F018C2F0E94B601CF5F4D
:10065000C032B9F7CF911F910F9108951F920F9259
:100660000FB60F9211242F933F934F935F936F9385
:100670007F938F939F93AF93BF93EF93FF93E091FB
:100680008A00F0918B00309709F00995FF91EF9166
:10069000BF91AF919F918F917F916F915F914F919A
:1006A0003F912F910F900FBE0F901F9018951F92A2
:1006B0000F920FB60F9211242F933F934F935F9396
:1006C0006F937F938F939F93AF93BF93EF93FF931A
:1006D000E0918800F0918900309709F00995FF9129
:1006E000EF91BF91AF919F918F917F916F915F91AA
:1006F0004F913F912F910F900FBE0F901F90189523
:100700001F920F920FB60F9211242F933F934F9386
:100710005F936F937F938F939F93AF93BF93EF9369
:10072000FF93E0918600F0918700309709F00995DA
:10073000FF91EF91BF91AF919F918F917F916F91B9
:100740005F914F913F912F910F900FBE0F901F908F
:1007500018951F920F920FB60F9211242F933F936B
:100760004F935F936F937F938F939F93AF93BF93B9
:10077000EF93FF93E0918C00F0918D00309709F09A
:100780000995FF91EF91BF91AF919F918F917F91CB
:100790006F915F914F913F912F910F900FBE0F90EE
:1007A0001F9018951F920F920FB60F9211242F933E
:1007B0003F934F935F936F937F938F939F93AF93E9
:1007C000BF93EF93FF93E0918E00F0918F003097ED
:1007D00009F00995FF91EF91BF91AF919F918F9192
:1007E0007F916F915F914F913F912F910F900FBE2D
:1007F0000F901F9018951F920F920FB60F92112411
:100800002F933F934F935F936F937F938F939F9318
:10081000AF93BF93EF93FF93E0919000F09191001D
:10082000309709F00995FF91EF91BF91AF919F919A
:100830008F917F916F915F914F913F912F910F9089
:100840000FBE0F901F9018951F920F920FB60F9228
:1008500011242F933F934F935F936F937F938F93C5
:100860009F93AF93BF93EF93FF93E0919C00F09120
:100870009D00309709F00995FF91EF91BF91AF91DD
:100880009F918F917F916F915F914F913F912F91A8
:100890000F900FBE0F901F9018951F920F920FB6DA
:1008A0000F9211242F933F934F935F936F937F93F6
:1008B0008F939F93AF93BF93EF93FF93E0919A0031
:1008C000F0919B00309709F00995FF91EF91BF914E
:1008D000AF919F918F917F916F915F914F913F91D8
:1008E0002F910F900FBE0F901F9018951F920F928F
:1008F0000FB60F9211242F933F934F935F936F93F3
:100900007F938F939F93AF93BF93EF93FF93E09168
:100910009800F0919900309709F00995FF91EF91B7
:10092000BF91AF919F918F917F916F915F914F9107
:100930003F912F910F900FBE0F901F9018951F920F
:100940000F920FB60F9211242F933F934F935F9303
:100950006F937F938F939F93AF93BF93EF93FF9387
:10096000E0919600F0919700309709F00995FF917A
:10097000EF91BF91AF919F918F917F916F915F9117
:100980004F913F912F910F900FBE0F901F90189590
:100990001F920F920FB60F9211242F933F934F93F4
:1009A0005F936F937F938F939F93AF93BF93EF93D7
:1009B000FF93E0919400F0919500309709F009952C
:1009C000FF91EF91BF91AF919F918F917F916F9127
:1009D0005F914F913F912F910F900FBE0F901F90FD
:1009E00018951F920F920FB60F9211242F933F93D9
:1009F0004F935F936F937F938F939F93AF93BF9327
:100A0000EF93FF93E0919200F0919300309709F0FB
:100A10000995FF91EF91BF91AF919F918F917F9138
:100A20006F915F914F913F912F910F900FBE0F905B
:100A30001F9018951F920F920FB60F9211242F93AB
:100A40003F934F935F936F937F938F939F93AF9356
:100A5000BF93EF93FF93E091A200F091A300309732
:100A600009F00995FF91EF91BF91AF919F918F91FF
:100A70007F916F915F914F913F912F910F900FBE9A
:100A80000F901F9018951F920F920FB60F9211247E
:100A90002F933F934F935F936F937F938F939F9386
:100AA000AF93BF93EF93FF93E091A000F091A1006B
:100AB000309709F00995FF91EF91BF91AF919F9108
:100AC0008F917F916F915F914F913F912F910F90F7
:100AD0000FBE0F901F9018951F920F920FB60F9296
:100AE00011242F933F934F935F936F937F938F9333
:100AF0009F93AF93BF93EF93FF93E0919E00F0918C
:100B00009F00309709F00995FF91EF91BF91AF9148
:100B10009F918F917F916F915F914F913F912F9115
:100B20000F900FBE0F901F901895A1E21A2EAA1BCE
:100B3000BB1BFD010DC0AA1FBB1FEE1FFF1FA2178D
:100B4000B307E407F50720F0A21BB30BE40BF50B8A
:100B5000661F771F881F991F1A9469F76095709513
:100B6000809590959B01AC01BD01CF010895052EA4
:100B700097FB1EF400940E94CE0557FD07D00E94FB
:100B8000950507FC03D04EF40C94CE055095409586
:100B9000309521953F4F4F4F5F4F08959095809529
:100BA000709561957F4F8F4F9F4F0895A29FB00121
:100BB000B39FC001A39F700D811D1124911DB29F91
:0E0BC000700D811D1124911D0895F894FFCF32
:100BCE0020202000000000000000000000000000B7
:100BDE000000000001010000000000000000000005
:040BEE000000000003
:00000001FF
