:100000000C942A000C943F000C943F000C943F0089
:100010000C943F000C943F000C943F000C943F0064
:100020000C943F000C943F000C943F000C943F0054
:100030000C943F000C943F000C943F000C943F0044
:100040000C943F000C943F000C943F000C943F0034
:100050000C943F0011241FBECFE5D8E0DEBFCDBF1A
:1000600010E0A0E6B0E0E4E5F9E002C005900D92F2
:10007000AE39B107D9F70E94FC010C94A8040C9486
:100080000000CF93C82F682F661F6627661F87E082
:100090000E942503C6FB662760F986E00E942503BF
:1000A000C5FB662760F985E00E942503C4FB66272F
:1000B00060F984E00E94250360E08AE00E94250345
:1000C00060E089E00E94250361E088E00E9425034A
:1000D0008FEC97E00197F1F700C0000060E088E046
:1000E0000E9425038FEC97E00197F1F700C0000014
:1000F000C3FB662760F987E00E942503C2FB6627E1
:1001000060F986E00E942503C1FB662760F985E05F
:100110000E9425036C2F617084E00E94250361E03A
:1001200088E00E9425038FEC97E00197F1F700C06B
:10013000000060E088E00E9425038FEC97E00197C3
:10014000F1F700C00000CF910895CF93C82F682F1A
:10015000661F6627661F87E00E942503C6FB662789
:1001600060F986E00E942503C5FB662760F985E0FB
:100170000E942503C4FB662760F984E00E942503E2
:1001800061E08AE00E94250361E088E00E94250387
:100190008FEC97E00197F1F700C0000060E088E085
:1001A0000E9425038FEC97E00197F1F700C0000053
:1001B000C3FB662760F987E00E942503C2FB662720
:1001C00060F986E00E942503C1FB662760F985E09F
:1001D0000E9425036C2F617084E00E94250361E07A
:1001E00088E00E9425038FEC97E00197F1F700C0AB
:1001F000000060E088E00E9425038FEC97E0019703
:10020000F1F700C00000CF9108958FE295E70197C4
:10021000F1F700C0000082E00E94410088E20E94E5
:1002200041008CE00E94410081E00E9441008FE982
:100230009FE00197F1F700C0000008950C94A5001D
:100240000F931F93CF938C01C0E0F801EC0FF11DC9
:100250008081882321F00E94A500CF5FF6CFCF9147
:100260001F910F910895813039F058F0823031F0AC
:10027000833031F46C5A05C0605C03C06C5E01C011
:1002800060E0862F80680C944100CF93DF93EA01F1
:100290000E943301CE01DF91CF910C9420012F9267
:1002A0003F924F925F926F927F928F929F92AF9206
:1002B000BF92CF92DF92EF92FF920F931F93CF9353
:1002C000DF93CDB7DEB72D970FB6F894DEBF0FBE24
:1002D000CDBF29013A014B011C01A0E00E949C0402
:1002E00089F00E949C04BCF48DE20E94A50092015A
:1002F000A301B401C1010E94490429013A014B0143
:100300001C0109C090E3492E512C612C712C812CC9
:10031000912C212C312C1B8681E090E08C0F9D1FAD
:10032000EB858E0F911D9D878C878AE0A82EB12CBE
:10033000C12CD12CE12CF12C00E010E09201A301A2
:10034000B401C1010E94B903205DEC85FD852083C5
:100350009201A301B401C1010E94BB0329013A012A
:100360004B011C01FB85FF5FFB87A0E00E949C0402
:1003700099F69B85992359F0FE012B85E20FF11D1B
:1003800080810E94A5008B8581508B87F2CF2D96AE
:100390000FB6F894DEBF0FBECDBFDF91CF911F9196
:1003A0000F91FF90EF90DF90CF90BF90AF909F9014
:1003B0008F907F906F905F904F903F902F90089517
:1003C0000F931F93CF93DF938C01862F880F880F95
:1003D000880F805C0E944100E801085F1F4F8991EF
:1003E0000E94A500C017D107D1F780E8DF91CF9117
:1003F0001F910F910C9441000E94A6030E940501D9
:1004000060E088E690E00E94E00161E080E690E034
:100410000E94E00140E750E060E080E00E9445017A
:1004200047E750E060E082E00E944501C1E4E12C32
:10043000F12C00E010E0D0E0C12CD12C68E080E08D
:100440000E9433018C2F0E941E0168E082E00E940E
:1004500033012C2F3E2D4F2D502F612F7D2FC601A4
:100460000E944F012FEF82E597E02150804090409D
:10047000E1F700C000002C2F3E2D4F2D502F612F93
:100480007D2FC601A1E00E949004C22FE32EF42E1E
:10049000052F162FD72F6C01ABE50E949C0471F637
:1004A000C5CF982F97708695869586956130E9F12E
:1004B00020F0623009F479C00895813091F028F07D
:1004C0008230D9F0833029F108954AB321E030E039
:1004D000B90102C0660F771F9A95E2F7CB01842B12
:1004E00038C047B321E030E0B90102C0660F771F82
:1004F0009A95E2F7CB01842B3AC044B321E030E077
:10050000B90102C0660F771F9A95E2F7CB01842BE1
:100510003CC041B321E030E0B90102C0660F771F53
:100520009A95E2F7CB01842B3EC08130A1F028F0F0
:100530008230F9F0833059F108954AB321E030E078
:10054000B90102C0660F771F9A95E2F7CB0180953B
:1005500084238ABB089547B321E030E0B90102C08B
:10056000660F771F9A95E2F7CB018095842387BBAE
:10057000089544B321E030E0B90102C0660F771F4F
:100580009A95E2F7CB018095842384BB089541B30B
:1005900021E030E0B90102C0660F771F9A95E2F7BB
:1005A000CB018095842381BB08958130C1F028F070
:1005B000823039F18330B9F108954AB321E030E057
:1005C000B90102C0660F771F9A95E2F7CB01962F0B
:1005D000909594239ABB9BB3892B8BBB089547B30B
:1005E00021E030E0B90102C0660F771F9A95E2F76B
:1005F000CB01962F9095942397BB98B3892B88BBFA
:10060000089544B321E030E0B90102C0660F771FBE
:100610009A95E2F7CB01962F9095942394BB95B3CE
:10062000892B85BB089541B321E030E0B90102C0B8
:10063000660F771F9A95E2F7CB01962F909594233A
:1006400091BB92B3892B82BB0895982F97708695A2
:10065000869586956130C1F5813091F028F0823021
:10066000D9F0833029F108954BB321E030E0B9018E
:1006700002C0660F771F9A95E2F7CB01842B3AC030
:1006800048B321E030E0B90102C0660F771F9A95A8
:10069000E2F7CB01842B3CC045B321E030E0B90147
:1006A00002C0660F771F9A95E2F7CB01842B3EC0FC
:1006B00042B321E030E0B90102C0660F771F9A957E
:1006C000E2F7CB01842B40C061113FC08130A1F023
:1006D00028F08230F9F0833059F108954BB321E0CE
:1006E00030E0B90102C0660F771F9A95E2F7CB019F
:1006F000809584238BBB089548B321E030E0B90195
:1007000002C0660F771F9A95E2F7CB01809584238C
:1007100088BB089545B321E030E0B90102C0660FFF
:10072000771F9A95E2F7CB018095842385BB0895C6
:1007300042B321E030E0B90102C0660F771F9A95FD
:10074000E2F7CB018095842382BB08950F931F931A
:10075000CF930EE710E0C0E0F80161918F018C2F7C
:100760000E945102CF5FC032B9F7CF911F910F9114
:100770000895689401C0E894F92FF12B12F00C94BD
:10078000ED03A0E0B0E0E7ECF3E00C945F04092E89
:10079000059422F40E944904112392F4F0E80F26F4
:1007A000FFEFE094F09400951095B094C094D0942D
:1007B000A194BF0ACF0ADF0AEF0AFF0A0F0B1F0B33
:1007C0000E94F80307FC0E944904CDB7DEB7ECE0B5
:1007D0000C947B04689401C0E8948F929F92CF930D
:1007E000DF930E94F803DF91CF919F908F9008953F
:1007F00088249924F401E401B0E49F93AA279A1570
:100800008B049C04ED05FE05CF05D007A10798F4E5
:10081000AD2FDC2FCF2FFE2FE92D982C892E982F6E
:10082000872F762F652F542F432F322F2227B85032
:1008300031F7BF9127C01B2EBF91BB27220F331F5B
:10084000441F551F661F771F881F991F881C991CFE
:10085000EE1FFF1FCC1FDD1FAA1FBB1F8A149B04A6
:10086000EC05FD05CE05DF05A007B10748F08A18A5
:100870009B08EC09FD09CE09DF09A00BB10B216033
:100880001A94E1F62EF49401AF01BE01CD01000CE3
:100890000895609570958095909530954095509508
:1008A00021953F4F4F4F5F4F6F4F7F4F8F4F9F4F60
:1008B00008952F923F924F925F926F927F928F9204
:1008C0009F92AF92BF92CF92DF92EF92FF920F93DF
:1008D0001F93CF93DF93CDB7DEB7CA1BDB0B0FB6E9
:1008E000F894DEBF0FBECDBF09942A8839884888A6
:1008F0005F846E847D848C849B84AA84B984C8843C
:10090000DF80EE80FD800C811B81AA81B981CE0F32
:10091000D11D0FB6F894DEBF0FBECDBFED01089517
:100920000024A7FD00942A0F301D401D501D601D9E
:10093000701D801D901D08950024A7FD00942A17A6
:100940003005400550056005700580059005089547
:04095000F894FFCF49
:100954000000021F020000000E0E041F0E0E0A0A01
:10096400436861723A2000417363693A20000000D1
:100974000000000000000000000000000000000073
:0E098400000000000000000000000000000065
:00000001FF
