S01300004156525F447269766572732E73726563EA
S11300000C942A000C9478020C94A1020C94CA0259
S11300100C9447000C9447000C9447000C94470040
S11300200C9447000C9447000C9447000C94470030
S11300300C9447000C9447000C9447000C94470020
S11300400C94C8000C9447000C9447000C9447008F
S11300500C94470011241FBECFE5D8E0DEBFCDBF0E
S113006010E0A0E6B0E0EAEEF5E002C005900D92E3
S1130070A038B107D9F720E0A0E8B0E001C01D9294
S1130080A838B207E1F70E9494000C94F3020C9490
S1130090000080E10E94C5012FEF89E698E121501C
S11300A080409040E1F700C0000080E10E94C5015B
S11300B02FEF89E698E1215080409040E1F700C09D
S11300C00000089581E10E94C5012FEF89E698E1BF
S11300D0215080409040E1F700C0000081E10E947F
S11300E0C5012FEF89E698E1215080409040E1F767
S11300F000C00000089582E10E94C5012FEF89E647
S113010098E1215080409040E1F700C0000082E176
S11301100E94C5012FEF89E698E12150804090406C
S1130120E1F700C0000008950E94FA01789480E08D
S11301300E940D0281E00E940D0282E00E940D02E5
S113014062E080E00E941D0263E081E00E941D02E3
S113015062E082E00E941D0269E470E080E00E9497
S1130160630262E670E081E00E9463026BE770E084
S113017082E00E94630283E10E94C5012FEF83EDB8
S113018090E3215080409040E1F700C00000F3CF9D
S11301901F920F920FB60F9211242F933F934F93F8
S11301A05F936F937F938F939F93AF93BF93EF93DB
S11301B0FF93E0918000F0918100309709F0099558
S11301C0FF91EF91BF91AF919F918F917F916F912B
S11301D05F914F913F912F910F900FBE0F901F9001
S11301E01895982F97708695869586956130E9F1D4
S11301F020F0623009F479C00895813091F028F03C
S11302008230D9F0833029F108954AB321E030E0F7
S1130210B90102C0660F771F9A95E2F7CB01842BD0
S113022038C047B321E030E0B90102C0660F771F40
S11302309A95E2F7CB01842B3AC044B321E030E035
S1130240B90102C0660F771F9A95E2F7CB01842BA0
S11302503CC041B321E030E0B90102C0660F771F12
S11302609A95E2F7CB01842B3EC08130A1F028F0AF
S11302708230F9F0833059F108954AB321E030E037
S1130280B90102C0660F771F9A95E2F7CB018095FA
S113029084238ABB089547B321E030E0B90102C04A
S11302A0660F771F9A95E2F7CB018095842387BB6D
S11302B0089544B321E030E0B90102C0660F771F0E
S11302C09A95E2F7CB018095842384BB089541B3CA
S11302D021E030E0B90102C0660F771F9A95E2F77A
S11302E0CB018095842381BB08958130C1F028F02F
S11302F0823039F18330B9F108954AB321E030E016
S1130300B90102C0660F771F9A95E2F7CB01962FC9
S1130310909594239ABB9BB3892B8BBB089547B3C9
S113032021E030E0B90102C0660F771F9A95E2F729
S1130330CB01962F9095942397BB98B3892B88BBB8
S1130340089544B321E030E0B90102C0660F771F7D
S11303509A95E2F7CB01962F9095942394BB95B38D
S1130360892B85BB089541B321E030E0B90102C077
S1130370660F771F9A95E2F7CB01962F90959423F9
S113038091BB92B3892B82BB0895282F2770869541
S113039086958695813081F028F08230B9F08330DB
S11303A0F9F008953BB381E090E001C0880F2A95ED
S11303B0EAF783278BBB089538B381E090E001C04E
S11303C0880F2A95EAF7832788BB089535B381E01F
S11303D090E001C0880F2A95EAF7832785BB08952A
S11303E032B381E090E001C0880F2A95EAF78327B1
S11303F082BB08950F931F93CF9300E610E0C0E0F3
S1130400F80161918F018C2F0E94F100CF5FC032FF
S1130410B9F7CF911F910F910895813039F018F0F9
S1130420823039F008958BB7806405C08BB780683B
S113043002C08BB780628BBF08958130F1F018F051
S11304408230B1F10895613049F028F0623061F0F2
S1130450633069F0089585B78E7F02C085B78160E7
S113046085BF85B78D7F22C085B78E7F02C085B7D3
S1130470816085BF85B7826019C0613049F028F07A
S1130480623061F0633069F0089585B78B7F02C0F4
S113049085B7846085BF85B7877F08C085B78B7FA4
S11304A002C085B7846085BF85B7886085BF08951D
S11304B0623029F0633019F484B7806402C084B7D1
S11304C08F7B84BF0895813049F018F0823059F051
S11304D00895709387006093860008957093850053
S11304E0609384000895709383006093820008955C
S11304F01F920F920FB60F9211242F933F934F9395
S11305005F936F937F938F939F93AF93BF93EF9377
S1130510FF93E0918600F0918700309709F00995E8
S1130520FF91EF91BF91AF919F918F917F916F91C7
S11305305F914F913F912F910F900FBE0F901F909D
S113054018951F920F920FB60F9211242F933F9379
S11305504F935F936F937F938F939F93AF93BF93C7
S1130560EF93FF93E0918400F0918500309709F0B8
S11305700995FF91EF91BF91AF919F918F917F91D9
S11305806F915F914F913F912F910F900FBE0F90FC
S11305901F9018951F920F920FB60F9211242F934C
S11305A03F934F935F936F937F938F939F93AF93F7
S11305B0BF93EF93FF93E0918200F0918300309713
S11305C009F00995FF91EF91BF91AF919F918F91A0
S11305D07F916F915F914F913F912F910F900FBE3B
S10D05E00F901F901895F894FFCFB8
S11305EA01010101010101010000020000000000F3
S11305FA00000000000000000000020200000000E9
S9030000FC
