S01300004156525F447269766572732E73726563EA
S11300000C9431000C9496020C94BF020C94E802F8
S11300100C944E000C944E000C9449040C94F70379
S11300200C9420040C94CE030C94A5030C947C0330
S11300300C9453030C949B040C94C4040C94720409
S11300400C94F5000C944E000C944E000C944E004D
S11300500C944E0039033B033F034103440346031E
S1130060490311241FBECFE5D8E0DEBFCDBF10E0A9
S1130070A0E6B0E0EAEEF9E002C005900D92A239E4
S1130080B107D9F720E0A2E9B0E001C01D92AE3A71
S1130090B207E1F70E94CF000C94F3040C94000023
S11300A0682F82E00E94730260E085E00E94F20102
S11300B060E086E00E94F20161E087E00E94F201C4
S11300C08FEC97E00197F1F700C0000060E087E053
S11300D00E94F2018FEC97E00197F1F700C0000055
S11300E00895682F82E00E94730261E085E00E9417
S11300F0F20160E086E00E94F20161E087E00E9484
S1130100F2018FEC97E00197F1F700C0000060E086
S113011087E00E94F2018FEC97E00197F1F700C0AD
S1130120000008958FE39CE90197F1F700C00000F7
S113013088E30E9450008CE00E94500081E00E94FD
S113014050008FE99FE00197F1F700C00000089587
S11301500C9471000F931F93CF938C01C0E0F801AE
S1130160EC0FF11D8081882321F00E947100CF5F84
S1130170F6CFCF911F910F910895813039F058F047
S1130180823031F0833031F46C5A05C0605C03C0B6
S11301906C5E01C060E0862F80680C9450007894F7
S11301A00E9483020E94920080E690E00E94AA00CE
S11301B060E082E00E94BD000E941103C0E08C2F29
S11301C00E944E03D82FCF5F60E081E00E94BD0003
S11301D08D2F0E94A8002FEF89E698E121508040DE
S11301E09040E1F700C00000EACF1F920F920FB6D3
S11301F00F9211242F933F934F935F936F937F93A9
S11302008F939F93AF93BF93EF93FF93E0919200EB
S1130210F0919300309709F00995FF91EF91BF9108
S1130220AF919F918F917F916F915F914F913F918A
S11302302F910F900FBE0F901F901895982F9770C5
S11302408695869586956130E9F120F0623009F44F
S113025079C00895813091F028F08230D9F083304C
S113026029F108954AB321E030E0B90102C0660FD4
S1130270771F9A95E2F7CB01842B38C047B321E06E
S113028030E0B90102C0660F771F9A95E2F7CB01FF
S1130290842B3AC044B321E030E0B90102C0660FB8
S11302A0771F9A95E2F7CB01842B3CC041B321E040
S11302B030E0B90102C0660F771F9A95E2F7CB01CF
S11302C0842B3EC08130A1F028F08230F9F08330D5
S11302D059F108954AB321E030E0B90102C0660F34
S11302E0771F9A95E2F7CB01809584238ABB089502
S11302F047B321E030E0B90102C0660F771F9A9539
S1130300E2F7CB018095842387BB089544B321E0B1
S113031030E0B90102C0660F771F9A95E2F7CB016E
S11303208095842384BB089541B321E030E0B90172
S113033002C0660F771F9A95E2F7CB01809584235C
S113034081BB08958130C1F028F0823039F18330C7
S1130350B9F108954AB321E030E0B90102C0660F53
S1130360771F9A95E2F7CB01962F909594239ABB29
S11303709BB3892B8BBB089547B321E030E0B901CF
S113038002C0660F771F9A95E2F7CB01962F9095DE
S1130390942397BB98B3892B88BB089544B321E079
S11303A030E0B90102C0660F771F9A95E2F7CB01DE
S11303B0962F9095942394BB95B3892B85BB089570
S11303C041B321E030E0B90102C0660F771F9A956E
S11303D0E2F7CB01962F9095942391BB92B3892B8E
S11303E082BB0895982F977086958695869561307F
S11303F0C1F5813091F028F08230D9F0833029F1B1
S113040008954BB321E030E0B90102C0660F771FB5
S11304109A95E2F7CB01842B3AC048B321E030E04F
S1130420B90102C0660F771F9A95E2F7CB01842BBE
S11304303CC045B321E030E0B90102C0660F771F2C
S11304409A95E2F7CB01842B3EC042B321E030E021
S1130450B90102C0660F771F9A95E2F7CB01842B8E
S113046040C061113FC08130A1F028F08230F9F022
S1130470833059F108954BB321E030E0B90102C053
S1130480660F771F9A95E2F7CB01809584238BBB87
S1130490089548B321E030E0B90102C0660F771F28
S11304A09A95E2F7CB018095842388BB089545B3E0
S11304B021E030E0B90102C0660F771F9A95E2F798
S11304C0CB018095842385BB089542B321E030E0BD
S11304D0B90102C0660F771F9A95E2F7CB018095A8
S11304E0842382BB0895813041F028F0823039F0B2
S11304F0833039F008956BBB089568BB089565BBDC
S1130500089562BB08950F931F93CF930CE610E0F8
S1130510C0E0F80161918F018C2F0E941E01CF5F12
S1130520C032B9F7CF911F910F9108951F920F9286
S11305300FB60F9211242F933F934F935F936F93B2
S11305407F938F939F93AF93BF93EF93FF93E09128
S11305509800F0919900309709F00995FF91EF9177
S1130560BF91AF919F918F917F916F915F914F91C7
S11305703F912F910F900FBE0F901F9018951F92CF
S11305800F920FB60F9211242F933F934F935F93C3
S11305906F937F938F939F93AF93BF93EF93FF9347
S11305A0E0919600F0919700309709F00995FF913A
S11305B0EF91BF91AF919F918F917F916F915F91D7
S11305C04F913F912F910F900FBE0F901F90189550
S11305D01F920F920FB60F9211242F933F934F93B4
S11305E05F936F937F938F939F93AF93BF93EF9397
S11305F0FF93E0919400F0919500309709F00995EC
S1130600FF91EF91BF91AF919F918F917F916F91E6
S11306105F914F913F912F910F900FBE0F901F90BC
S1130620189580918C00811102C06D9A01C06D985B
S113063080918D00813011F46C9A01C06C98809186
S11306408E00811102C06B9801C06B9A80918F005B
S1130650811102C06A9A01C06A98E09190008E2FBD
S113066090E087309105C0F4FC01E65DFF4F0C94E7
S1130670ED04709A01C07098689869980DC0709ADA
S113068001C07098689AF9CF709A01C07098689800
S113069002C07098689A699A6E9A08958FB9779B88
S11306A0FECF8FB108951F920F920FB60F921124AF
S11306B02F933F934F935F936F937F938F939F9366
S11306C0AF93BF93EF93FF93E0919A00F0919B0057
S11306D0309709F00995FF91EF91BF91AF919F91E8
S11306E08F917F916F915F914F913F912F910F90D7
S11306F00FBE0F901F9018951F920F920FB60F9276
S113070011242F933F934F935F936F937F938F9312
S11307109F93AF93BF93EF93FF93E091A600F09163
S1130720A700309709F00995FF91EF91BF91AF9120
S11307309F918F917F916F915F914F913F912F91F5
S11307400F900FBE0F901F9018951F920F920FB627
S11307500F9211242F933F934F935F936F937F9343
S11307608F939F93AF93BF93EF93FF93E091A40074
S1130770F091A500309709F00995FF91EF91BF9191
S1130780AF919F918F917F916F915F914F913F9125
S11307902F910F900FBE0F901F9018951F920F92DC
S11307A00FB60F9211242F933F934F935F936F9340
S11307B07F938F939F93AF93BF93EF93FF93E091B6
S11307C0A200F091A300309709F00995FF91EF91F1
S11307D0BF91AF919F918F917F916F915F914F9155
S11307E03F912F910F900FBE0F901F9018951F925D
S11307F00F920FB60F9211242F933F934F935F9351
S11308006F937F938F939F93AF93BF93EF93FF93D4
S1130810E091A000F091A100309709F00995FF91B3
S1130820EF91BF91AF919F918F917F916F915F9164
S11308304F913F912F910F900FBE0F901F901895DD
S11308401F920F920FB60F9211242F933F934F9341
S11308505F936F937F938F939F93AF93BF93EF9324
S1130860FF93E0919E00F0919F00309709F0099565
S1130870FF91EF91BF91AF919F918F917F916F9174
S11308805F914F913F912F910F900FBE0F901F904A
S113089018951F920F920FB60F9211242F933F9326
S11308A04F935F936F937F938F939F93AF93BF9374
S11308B0EF93FF93E0919C00F0919D00309709F035
S11308C00995FF91EF91BF91AF919F918F917F9186
S11308D06F915F914F913F912F910F900FBE0F90A9
S11308E01F9018951F920F920FB60F9211242F93F9
S11308F03F934F935F936F937F938F939F93AF93A4
S1130900BF93EF93FF93E091AC00F091AD0030976B
S113091009F00995FF91EF91BF91AF919F918F914C
S11309207F916F915F914F913F912F910F900FBEE7
S11309300F901F9018951F920F920FB60F921124CB
S11309402F933F934F935F936F937F938F939F93D3
S1130950AF93BF93EF93FF93E091AA00F091AB00A4
S1130960309709F00995FF91EF91BF91AF919F9155
S11309708F917F916F915F914F913F912F910F9044
S11309800FBE0F901F9018951F920F920FB60F92E3
S113099011242F933F934F935F936F937F938F9380
S11309A09F93AF93BF93EF93FF93E091A800F091CF
S11309B0A900309709F00995FF91EF91BF91AF918C
S11309C09F918F917F916F915F914F913F912F9163
S11309D00F900FBE0F901F901895EE0FFF1F0590FC
S10D09E0F491E02D0994F894FFCF80
S11309EA77656C636F6D65207370690000000000A1
S11309FA00000000000000000000010000000000E8
S1130A0A00000000010000000000000000010000D6
S1050A1A0200D4
S9030000FC
