S01300004156525F447269766572732E73726563EA
S11300000C942A000C9429020C9452020C947B0246
S11300100C9447000C9447000C94CB030C94790384
S11300200C94A2030C9450030C9427030C94FE022A
S11300300C94D5020C941D040C9446040C94F40303
S11300400C9488000C9447000C9447000C94AC0268
S11300500C94470011241FBECFE5D8E0DEBFCDBF0E
S113006010E0A0E6B0E0E2EEF8E002C005900D92E8
S1130070A038B107D9F720E0A0E8B0E001C01D9294
S1130080AE39B207E1F70E9480000C946F040C941F
S11300900000682F83E00E94060260E085E00E9471
S11300A0850160E086E00E94850161E087E00E94AE
S11300B085018FEC97E00197F1F700C0000060E044
S11300C087E00E9485018FEC97E00197F1F700C06B
S11300D0000008958FE39CE90197F1F700C0000048
S11300E088E30E9449008CE00E94490081E00E945C
S11300F049008FE99FE00197F1F700C000000895DF
S113010078940E9416020E946A000E94A402FFCF03
S11301101F920F920FB60F9211242F933F934F9378
S11301205F936F937F938F939F93AF93BF93EF935B
S1130130FF93E0918000F0918100309709F00995D8
S1130140FF91EF91BF91AF919F918F917F916F91AB
S11301505F914F913F912F910F900FBE0F901F9081
S11301601895982F97708695869586956130E9F154
S113017020F0623009F479C00895813091F028F0BC
S11301808230D9F0833029F108954AB321E030E078
S1130190B90102C0660F771F9A95E2F7CB01842B51
S11301A038C047B321E030E0B90102C0660F771FC1
S11301B09A95E2F7CB01842B3AC044B321E030E0B6
S11301C0B90102C0660F771F9A95E2F7CB01842B21
S11301D03CC041B321E030E0B90102C0660F771F93
S11301E09A95E2F7CB01842B3EC08130A1F028F030
S11301F08230F9F0833059F108954AB321E030E0B8
S1130200B90102C0660F771F9A95E2F7CB0180957A
S113021084238ABB089547B321E030E0B90102C0CA
S1130220660F771F9A95E2F7CB018095842387BBED
S1130230089544B321E030E0B90102C0660F771F8E
S11302409A95E2F7CB018095842384BB089541B34A
S113025021E030E0B90102C0660F771F9A95E2F7FA
S1130260CB018095842381BB08958130C1F028F0AF
S1130270823039F18330B9F108954AB321E030E096
S1130280B90102C0660F771F9A95E2F7CB01962F4A
S1130290909594239ABB9BB3892B8BBB089547B34A
S11302A021E030E0B90102C0660F771F9A95E2F7AA
S11302B0CB01962F9095942397BB98B3892B88BB39
S11302C0089544B321E030E0B90102C0660F771FFE
S11302D09A95E2F7CB01962F9095942394BB95B30E
S11302E0892B85BB089541B321E030E0B90102C0F8
S11302F0660F771F9A95E2F7CB01962F909594237A
S113030091BB92B3892B82BB0895982F97708695E1
S1130310869586956130C1F5813091F028F0823060
S1130320D9F0833029F108954BB321E030E0B901CD
S113033002C0660F771F9A95E2F7CB01842B3AC06F
S113034048B321E030E0B90102C0660F771F9A95E7
S1130350E2F7CB01842B3CC045B321E030E0B90186
S113036002C0660F771F9A95E2F7CB01842B3EC03B
S113037042B321E030E0B90102C0660F771F9A95BD
S1130380E2F7CB01842B40C061113FC08130A1F062
S113039028F08230F9F0833059F108954BB321E00D
S11303A030E0B90102C0660F771F9A95E2F7CB01DE
S11303B0809584238BBB089548B321E030E0B901D4
S11303C002C0660F771F9A95E2F7CB0180958423CC
S11303D088BB089545B321E030E0B90102C0660F3F
S11303E0771F9A95E2F7CB018095842385BB089506
S11303F042B321E030E0B90102C0660F771F9A953D
S1130400E2F7CB018095842382BB0895813041F0CB
S113041028F0823039F0833039F008956BBB0895A9
S113042068BB089565BB089562BB08950F931F933D
S1130430CF9300E610E0C0E0F80161918F018C2FAA
S11304400E94B100CF5FC032B9F7CF911F910F91D5
S113045008951F920F920FB60F9211242F933F937A
S11304604F935F936F937F938F939F93AF93BF93B8
S1130470EF93FF93E0918600F0918700309709F0A5
S11304800995FF91EF91BF91AF919F918F917F91CA
S11304906F915F914F913F912F910F900FBE0F90ED
S11304A01F9018951F920F920FB60F9211242F933D
S11304B03F934F935F936F937F938F939F93AF93E8
S11304C0BF93EF93FF93E0918400F0918500309700
S11304D009F00995FF91EF91BF91AF919F918F9191
S11304E07F916F915F914F913F912F910F900FBE2C
S11304F00F901F9018951F920F920FB60F92112410
S11305002F933F934F935F936F937F938F939F9317
S1130510AF93BF93EF93FF93E0918200F091830038
S1130520309709F00995FF91EF91BF91AF919F9199
S11305308F917F916F915F914F913F912F910F9088
S11305400FBE0F901F90189582E080B911B880E219
S113055082B984E486BF08951F920F920FB60F925A
S113056011242F933F934F935F936F937F938F93B4
S11305709F93AF93BF93EF93FF93E0918800F09123
S11305808900309709F00995FF91EF91BF91AF91E0
S11305909F918F917F916F915F914F913F912F9197
S11305A00F900FBE0F901F9018951F920F920FB6C9
S11305B00F9211242F933F934F935F936F937F93E5
S11305C08F939F93AF93BF93EF93FF93E0918A0030
S11305D0F0918B00309709F00995FF91EF91BF914D
S11305E0AF919F918F917F916F915F914F913F91C7
S11305F02F910F900FBE0F901F9018951F920F927E
S11306000FB60F9211242F933F934F935F936F93E1
S11306107F938F939F93AF93BF93EF93FF93E09157
S11306209600F0919700309709F00995FF91EF91AA
S1130630BF91AF919F918F917F916F915F914F91F6
S11306403F912F910F900FBE0F901F9018951F92FE
S11306500F920FB60F9211242F933F934F935F93F2
S11306606F937F938F939F93AF93BF93EF93FF9376
S1130670E0919400F0919500309709F00995FF916D
S1130680EF91BF91AF919F918F917F916F915F9106
S11306904F913F912F910F900FBE0F901F9018957F
S11306A01F920F920FB60F9211242F933F934F93E3
S11306B05F936F937F938F939F93AF93BF93EF93C6
S11306C0FF93E0919200F0919300309709F009951F
S11306D0FF91EF91BF91AF919F918F917F916F9116
S11306E05F914F913F912F910F900FBE0F901F90EC
S11306F018951F920F920FB60F9211242F933F93C8
S11307004F935F936F937F938F939F93AF93BF9315
S1130710EF93FF93E0919000F0919100309709F0EE
S11307200995FF91EF91BF91AF919F918F917F9127
S11307306F915F914F913F912F910F900FBE0F904A
S11307401F9018951F920F920FB60F9211242F939A
S11307503F934F935F936F937F938F939F93AF9345
S1130760BF93EF93FF93E0918E00F0918F00309749
S113077009F00995FF91EF91BF91AF919F918F91EE
S11307807F916F915F914F913F912F910F900FBE89
S11307900F901F9018951F920F920FB60F9211246D
S11307A02F933F934F935F936F937F938F939F9375
S11307B0AF93BF93EF93FF93E0918C00F0918D0082
S11307C0309709F00995FF91EF91BF91AF919F91F7
S11307D08F917F916F915F914F913F912F910F90E6
S11307E00FBE0F901F9018951F920F920FB60F9285
S11307F011242F933F934F935F936F937F938F9322
S11308009F93AF93BF93EF93FF93E0919C00F0917C
S11308109D00309709F00995FF91EF91BF91AF9139
S11308209F918F917F916F915F914F913F912F9104
S11308300F900FBE0F901F9018951F920F920FB636
S11308400F9211242F933F934F935F936F937F9352
S11308508F939F93AF93BF93EF93FF93E0919A008D
S1130860F0919B00309709F00995FF91EF91BF91AA
S1130870AF919F918F917F916F915F914F913F9134
S11308802F910F900FBE0F901F9018951F920F92EB
S11308900FB60F9211242F933F934F935F936F934F
S11308A07F938F939F93AF93BF93EF93FF93E091C5
S11308B09800F0919900309709F00995FF91EF9114
S11308C0BF91AF919F918F917F916F915F914F9164
S11308D03F912F910F900FBE0F901F901895F89491
S10508E0FFCF44
S11308E20000000000000000000000000000010001
S11308F201010000000000000000000000000000F0
S9030000FC
