:100000000C942A000C943F000C943F000C943F0089
:100010000C943F000C943F000C943F000C943F0064
:100020000C943F000C943F000C943F000C943F0054
:100030000C943F000C943F000C943F000C943F0044
:100040000C943F000C943F000C943F000C943F0034
:100050000C943F0011241FBECFE5D8E0DEBFCDBF1A
:1000600010E0A0E6B0E0E8E2F4E002C005900D92F6
:10007000A038B107D9F70E945D000C9412020C94CD
:10008000000061E088E00E94610161E089E00E9477
:10009000610160E08AE00C94610161E088E00E9407
:1000A000610160E089E00E94610161E08AE00C94F6
:1000B000610160E088E00C9461010E94FF0161E051
:1000C00088E00E94610161E089E00E9461012FEFF8
:1000D0008DE399E4215080409040E1F700C000009A
:1000E00080E10E94E201811102C00E94410081E191
:1000F0000E94E201811102C00E944D0082E10E9433
:10010000E201811102C00E9459002FEF81EE94E0BC
:10011000215080409040E1F7E1CF982F977086956D
:10012000869586956130E9F120F0623009F479C056
:100130000895813091F028F08230D9F0833029F190
:1001400008954AB321E030E0B90102C0660F771F7D
:100150009A95E2F7CB01842B38C047B321E030E019
:10016000B90102C0660F771F9A95E2F7CB01842B85
:100170003AC044B321E030E0B90102C0660F771FF6
:100180009A95E2F7CB01842B3CC041B321E030E0EB
:10019000B90102C0660F771F9A95E2F7CB01842B55
:1001A0003EC08130A1F028F08230F9F0833059F15F
:1001B00008954AB321E030E0B90102C0660F771F0D
:1001C0009A95E2F7CB01809584238ABB089547B3C3
:1001D00021E030E0B90102C0660F771F9A95E2F77F
:1001E000CB018095842387BB089544B321E030E0A0
:1001F000B90102C0660F771F9A95E2F7CB0180958F
:10020000842384BB089541B321E030E0B90102C0EA
:10021000660F771F9A95E2F7CB018095842381BB07
:1002200008958130C1F028F0823039F18330B9F17E
:1002300008954AB321E030E0B90102C0660F771F8C
:100240009A95E2F7CB01962F909594239ABB9BB396
:10025000892B8BBB089547B321E030E0B90102C080
:10026000660F771F9A95E2F7CB01962F909594230E
:1002700097BB98B3892B88BB089544B321E030E045
:10028000B90102C0660F771F9A95E2F7CB01962F4E
:100290009095942394BB95B3892B85BB089541B366
:1002A00021E030E0B90102C0660F771F9A95E2F7AE
:1002B000CB01962F9095942391BB92B3892B82BB4F
:1002C0000895982F97708695869586956130C1F52B
:1002D000813091F028F08230D9F0833029F10895EF
:1002E0004BB321E030E0B90102C0660F771F9A9549
:1002F000E2F7CB01842B3AC048B321E030E0B901EA
:1003000002C0660F771F9A95E2F7CB01842B3CC0A1
:1003100045B321E030E0B90102C0660F771F9A951E
:10032000E2F7CB01842B3EC042B321E030E0B901BB
:1003300002C0660F771F9A95E2F7CB01842B40C06D
:1003400061113FC08130A1F028F08230F9F0833094
:1003500059F108954BB321E030E0B90102C0660FB6
:10036000771F9A95E2F7CB01809584238BBB089584
:1003700048B321E030E0B90102C0660F771F9A95BB
:10038000E2F7CB018095842388BB089545B321E033
:1003900030E0B90102C0660F771F9A95E2F7CB01F2
:1003A0008095842385BB089542B321E030E0B901F4
:1003B00002C0660F771F9A95E2F7CB0180958423E0
:1003C00082BB0895282F2770869586958695813063
:1003D00049F030F0823041F0833079F480B305C0C9
:1003E00089B303C086B301C083B390E002C0959582
:1003F00087952A95E2F78170089580E008950F931C
:100400001F93CF9300E610E0C0E0F80161918F01E7
:100410008C2F0E948D00CF5FC032B9F7CF911F9112
:080420000F910895F894FFCF3D
:1004280000000000000000000000000000000000C4
:1004380002020200000000000000000000000000AE
:00000001FF
