S01300004156525F447269766572732E73726563EA
S11300000C942A000C9447000C9447000C9447006D
S11300100C9447000C9447000C9447000C94470040
S11300200C9447000C9447000C9447000C94470030
S11300300C9447000C9447000C9447000C94470020
S11300400C9447000C9447000C9447000C94470010
S11300500C94470011241FBECFE5D8E0DEBFCDBF0E
S113006010E0A0E6B0E0E2EBF5E002C005900D92EE
S1130070AE38B107D9F720E0AEE8B0E001C01D9278
S1130080AF38B207E1F70E94EB000C94D7020C944E
S11300900000682F83E00E94B40260E08AE00E94BE
S11300A0330260E089E00E94330261E088E00E944C
S11300B033028FEC97E00197F1F700C0000060E095
S11300C088E00E9433028FEC97E00197F1F700C0BB
S11300D000000895682F83E00E94B40261E08AE082
S11300E00E94330260E089E00E94330261E088E00C
S11300F00E9433028FEC97E00197F1F700C00000F3
S113010060E088E00E9433028FEC97E00197F1F7FA
S113011000C0000008958FE39CE90197F1F700C047
S1130120000088E30E9449008CE00E94490081E0BD
S11301300E9449008FE99FE00197F1F700C0000099
S113014008950C946A000F931F93CF938C01C0E021
S1130150F801EC0FF11D8081882321F00E946A00D0
S1130160CF5FF6CFCF911F910F910895813039F071
S113017058F0823031F0833031F46C5A05C0605C41
S113018003C06C5E01C060E0862F80680C94490057
S11301900F931F93CF93DF938C01EB0180E00E94B8
S11301A0510124E1AC01249FC001259F900D11242D
S11301B080918E00F8018083892F869586958331FE
S11301C011F0888301C0288380938E00DF91CF9142
S11301D01F910F910895CF93DF9300D0CDB7DEB771
S11301E01A8219820E94C4020E948B0066E080E099
S11301F00E943C0180E690E00E94A30060E082E05F
S11302000E94B600BE016F5F7F4FCE0102960E942E
S1130210C80099818A81891798F4192F181B00E066
S11302208FEF0E94A1002FEF81EE94E021508040D7
S11302309040E1F700C000000F5F1013F1CFE2CF50
S1130240981700F7182F191B00E06A81601B82E0E1
S11302500E94B60080E00E94A1002FEF81EE94E09E
S1130260215080409040E1F700C000000F5F10175C
S113027060F76A81611BC3CF813041F028F082307E
S113028039F43E9A3F9A04C03E9801C03E9A3F9882
S113029086B1887F86B986B1682B66B93D98379A4E
S11302A0089597B1907E97B997B18F71982B97B9AC
S11302B0369A3699FECF84B195B193700895982FEC
S11302C097708695869586956130E9F120F06230C5
S11302D009F479C00895813091F028F08230D9F082
S11302E0833029F108954AB321E030E0B90102C016
S11302F0660F771F9A95E2F7CB01842B38C047B37A
S113030021E030E0B90102C0660F771F9A95E2F749
S1130310CB01842B3AC044B321E030E0B90102C0E0
S1130320660F771F9A95E2F7CB01842B3CC041B34B
S113033021E030E0B90102C0660F771F9A95E2F719
S1130340CB01842B3EC08130A1F028F08230F9F03B
S1130350833059F108954AB321E030E0B90102C075
S1130360660F771F9A95E2F7CB01809584238ABBA9
S1130370089547B321E030E0B90102C0660F771F4A
S11303809A95E2F7CB018095842387BB089544B303
S113039021E030E0B90102C0660F771F9A95E2F7B9
S11303A0CB018095842384BB089541B321E030E0E0
S11303B0B90102C0660F771F9A95E2F7CB018095C9
S11303C0842381BB08958130C1F028F0823039F153
S11303D08330B9F108954AB321E030E0B90102C095
S11303E0660F771F9A95E2F7CB01962F9095942389
S11303F09ABB9BB3892B8BBB089547B321E030E0B4
S1130400B90102C0660F771F9A95E2F7CB01962FC8
S11304109095942397BB98B3892B88BB089544B3D4
S113042021E030E0B90102C0660F771F9A95E2F728
S1130430CB01962F9095942394BB95B3892B85BBC0
S1130440089541B321E030E0B90102C0660F771F7F
S11304509A95E2F7CB01962F9095942391BB92B392
S1130460892B82BB0895982F9770869586958695DB
S11304706130C1F5813091F028F08230D9F08330B9
S113048029F108954BB321E030E0B90102C0660FB1
S1130490771F9A95E2F7CB01842B3AC048B321E049
S11304A030E0B90102C0660F771F9A95E2F7CB01DD
S11304B0842B3CC045B321E030E0B90102C0660F93
S11304C0771F9A95E2F7CB01842B3EC042B321E01B
S11304D030E0B90102C0660F771F9A95E2F7CB01AD
S11304E0842B40C061113FC08130A1F028F08230DC
S11304F0F9F0833059F108954BB321E030E0B901AC
S113050002C0660F771F9A95E2F7CB01809584238A
S11305108BBB089548B321E030E0B90102C0660FF7
S1130520771F9A95E2F7CB018095842388BB0895C1
S113053045B321E030E0B90102C0660F771F9A95F8
S1130540E2F7CB018095842385BB089542B321E073
S113055030E0B90102C0660F771F9A95E2F7CB012C
S11305608095842382BB0895813041F028F0823045
S113057039F0833039F008956BBB089568BB089552
S113058065BB089562BB08950F931F93CF930EE646
S113059010E0C0E0F80161918F018C2F0E945F018F
S11305A0CF5FC032B9F7CF911F910F910895F8949E
S10505B0FFCF77
S11305B2566F6C756D65204C6576656C3A00010169
S11305C2010101010101000000000000000000001F
S11105D2000000000000000000000000000017
S9030000FC
