:100000000C9431000C9412030C943B030C94640385
:100010000C944E000C944E000C94C5040C94730484
:100020000C949C040C944A040C9421040C94F80342
:100030000C94CF030C9417050C9440050C94EE041B
:100040000C9471010C944E000C944E000C944E00D4
:100050000C944E00B503B703BB03BD03C003C2033A
:10006000C50311241FBECFE5D8E0DEBFCDBF10E031
:10007000A0E6B0E0E4E6FBE002C005900D92A239F4
:10008000B107D9F720E0A2E9B0E001C01D92AE3A75
:10009000B207E1F70E9448010C94B0050C940000EF
:1000A000682F82E00E94EF0260E085E00E946E020D
:1000B00060E086E00E946E0261E087E00E946E02CE
:1000C0008FEC97E00197F1F700C0000060E087E057
:1000D0000E946E028FEC97E00197F1F700C00000DC
:1000E0000895682F82E00E94EF0261E085E00E949F
:1000F0006E0260E086E00E946E0261E087E00E948E
:100100006E028FEC97E00197F1F700C0000060E00D
:1001100087E00E946E028FEC97E00197F1F700C034
:10012000000008958FE39CE90197F1F700C00000FB
:1001300088E30E9450008CE00E94500081E00E9401
:1001400050008FE99FE00197F1F700C0000008958B
:100150000F931F93CF938C01C0E0F801EC0FF11DBA
:100160008081882321F00E947100CF5FF6CFCF916C
:100170001F910F910895813039F058F0823031F09D
:10018000833031F46C5A05C0605C03C06C5E01C002
:1001900060E0862F80680C9450004F925F926F92BF
:1001A0007F92AF92BF92CF92DF92EF92FF921F9316
:1001B000CF93DF93CDB7DEB72A970FB6F894DEBFA3
:1001C0000FBECDBF6B017C016115710581059105E5
:1001D000B1F480E32A960FB6F894DEBF0FBECDBF10
:1001E000DF91CF911F91FF90EF90DF90CF90BF9064
:1001F000AF907F906F905F904F900C94710097FF3D
:100200000BC08DE20E947100F094E094D094C094F1
:10021000C11CD11CE11CF11C10E09AE0492E512CAC
:10022000612C712CAA24A394B12CAC0EBD1EA10E7E
:10023000B11CC701B601A30192010E948B05605D4C
:10024000F501608369017A011F5FC114D104E104E3
:10025000F10441F7112341F0FE01E10FF11D80810E
:100260000E9471001150F6CF2A960FB6F894DEBFA7
:100270000FBECDBFDF91CF911F91FF90EF90DF9028
:10028000CF90BF90AF907F906F905F904F90089508
:1002900078940E94FF020E94920080E690E00E9403
:1002A000A80060E082E00E94BB000E948D03D0E0C5
:1002B0008D2F0E94CA03C82FDF5F60E081E00E949B
:1002C000BB006C2F70E080E090E00E94CD002FEF2B
:1002D00089E698E1215080409040E1F700C000009D
:1002E000E7CF1F920F920FB60F9211242F933F93D7
:1002F0004F935F936F937F938F939F93AF93BF932E
:10030000EF93FF93E0919200F0919300309709F002
:100310000995FF91EF91BF91AF919F918F917F913F
:100320006F915F914F913F912F910F900FBE0F9062
:100330001F901895982F97708695869586956130B1
:10034000E9F120F0623009F479C00895813091F02C
:1003500028F08230D9F0833029F108954AB321E0A2
:1003600030E0B90102C0660F771F9A95E2F7CB0122
:10037000842B38C047B321E030E0B90102C0660FDA
:10038000771F9A95E2F7CB01842B3AC044B321E062
:1003900030E0B90102C0660F771F9A95E2F7CB01F2
:1003A000842B3CC041B321E030E0B90102C0660FAC
:1003B000771F9A95E2F7CB01842B3EC08130A1F0E4
:1003C00028F08230F9F0833059F108954AB321E0E2
:1003D00030E0B90102C0660F771F9A95E2F7CB01B2
:1003E000809584238ABB089547B321E030E0B901AA
:1003F00002C0660F771F9A95E2F7CB0180958423A0
:1004000087BB089544B321E030E0B90102C0660F14
:10041000771F9A95E2F7CB018095842384BB0895DA
:1004200041B321E030E0B90102C0660F771F9A9511
:10043000E2F7CB018095842381BB08958130C1F020
:1004400028F0823039F18330B9F108954AB321E0C0
:1004500030E0B90102C0660F771F9A95E2F7CB0131
:10046000962F909594239ABB9BB3892B8BBB0895B1
:1004700047B321E030E0B90102C0660F771F9A95BB
:10048000E2F7CB01962F9095942397BB98B3892BD5
:1004900088BB089544B321E030E0B90102C0660F83
:1004A000771F9A95E2F7CB01962F9095942394BBF2
:1004B00095B3892B85BB089541B321E030E0B901A4
:1004C00002C0660F771F9A95E2F7CB01962F9095A1
:1004D000942391BB92B3892B82BB0895982F977078
:1004E0008695869586956130C1F5813091F028F02A
:1004F0008230D9F0833029F108954BB321E030E008
:10050000B90102C0660F771F9A95E2F7CB01842BE1
:100510003AC048B321E030E0B90102C0660F771F4E
:100520009A95E2F7CB01842B3CC045B321E030E043
:10053000B90102C0660F771F9A95E2F7CB01842BB1
:100540003EC042B321E030E0B90102C0660F771F20
:100550009A95E2F7CB01842B40C061113FC08130F6
:10056000A1F028F08230F9F0833059F108954BB3AF
:1005700021E030E0B90102C0660F771F9A95E2F7DB
:10058000CB01809584238BBB089548B321E030E0F4
:10059000B90102C0660F771F9A95E2F7CB018095EB
:1005A000842388BB089545B321E030E0B90102C03F
:1005B000660F771F9A95E2F7CB018095842385BB60
:1005C000089542B321E030E0B90102C0660F771F01
:1005D0009A95E2F7CB018095842382BB0895813000
:1005E00041F028F0823039F0833039F008956BBB48
:1005F000089568BB089565BB089562BB08950F9385
:100600001F93CF930CE610E0C0E0F80161918F01D9
:100610008C2F0E949A01CF5FC032B9F7CF911F9102
:100620000F9108951F920F920FB60F9211242F93DE
:100630003F934F935F936F937F938F939F93AF936A
:10064000BF93EF93FF93E0919800F091990030975A
:1006500009F00995FF91EF91BF91AF919F918F9113
:100660007F916F915F914F913F912F910F900FBEAE
:100670000F901F9018951F920F920FB60F92112492
:100680002F933F934F935F936F937F938F939F939A
:10069000AF93BF93EF93FF93E0919600F091970093
:1006A000309709F00995FF91EF91BF91AF919F911C
:1006B0008F917F916F915F914F913F912F910F900B
:1006C0000FBE0F901F9018951F920F920FB60F92AA
:1006D00011242F933F934F935F936F937F938F9347
:1006E0009F93AF93BF93EF93FF93E0919400F091AA
:1006F0009500309709F00995FF91EF91BF91AF9167
:100700009F918F917F916F915F914F913F912F9129
:100710000F900FBE0F901F90189580918C00811143
:1007200002C06D9A01C06D9880918D00813011F4E6
:100730006C9A01C06C9880918E00811102C06B98F8
:1007400001C06B9A80918F00811102C06A9A01C02A
:100750006A98E09190008E2F90E087309105C0F468
:10076000FC01E65DFF4F0C94AA05709A01C07098D9
:10077000689869980DC0709A01C07098689AF9CF0E
:10078000709A01C07098689802C07098689A699AC7
:100790006E9A08958FB9779BFECF8FB108951F92FF
:1007A0000F920FB60F9211242F933F934F935F93A5
:1007B0006F937F938F939F93AF93BF93EF93FF9329
:1007C000E0919A00F0919B00309709F00995FF9114
:1007D000EF91BF91AF919F918F917F916F915F91B9
:1007E0004F913F912F910F900FBE0F901F90189532
:1007F0001F920F920FB60F9211242F933F934F9396
:100800005F936F937F938F939F93AF93BF93EF9378
:10081000FF93E091A600F091A700309709F00995A9
:10082000FF91EF91BF91AF919F918F917F916F91C8
:100830005F914F913F912F910F900FBE0F901F909E
:1008400018951F920F920FB60F9211242F933F937A
:100850004F935F936F937F938F939F93AF93BF93C8
:10086000EF93FF93E091A400F091A500309709F079
:100870000995FF91EF91BF91AF919F918F917F91DA
:100880006F915F914F913F912F910F900FBE0F90FD
:100890001F9018951F920F920FB60F9211242F934D
:1008A0003F934F935F936F937F938F939F93AF93F8
:1008B000BF93EF93FF93E091A200F091A3003097D4
:1008C00009F00995FF91EF91BF91AF919F918F91A1
:1008D0007F916F915F914F913F912F910F900FBE3C
:1008E0000F901F9018951F920F920FB60F92112420
:1008F0002F933F934F935F936F937F938F939F9328
:10090000AF93BF93EF93FF93E091A000F091A1000C
:10091000309709F00995FF91EF91BF91AF919F91A9
:100920008F917F916F915F914F913F912F910F9098
:100930000FBE0F901F9018951F920F920FB60F9237
:1009400011242F933F934F935F936F937F938F93D4
:100950009F93AF93BF93EF93FF93E0919E00F0912D
:100960009F00309709F00995FF91EF91BF91AF91EA
:100970009F918F917F916F915F914F913F912F91B7
:100980000F900FBE0F901F9018951F920F920FB6E9
:100990000F9211242F933F934F935F936F937F9305
:1009A0008F939F93AF93BF93EF93FF93E0919C003E
:1009B000F0919D00309709F00995FF91EF91BF915B
:1009C000AF919F918F917F916F915F914F913F91E7
:1009D0002F910F900FBE0F901F9018951F920F929E
:1009E0000FB60F9211242F933F934F935F936F9302
:1009F0007F938F939F93AF93BF93EF93FF93E09178
:100A0000AC00F091AD00309709F00995FF91EF919E
:100A1000BF91AF919F918F917F916F915F914F9116
:100A20003F912F910F900FBE0F901F9018951F921E
:100A30000F920FB60F9211242F933F934F935F9312
:100A40006F937F938F939F93AF93BF93EF93FF9396
:100A5000E091AA00F091AB00309709F00995FF9161
:100A6000EF91BF91AF919F918F917F916F915F9126
:100A70004F913F912F910F900FBE0F901F9018959F
:100A80001F920F920FB60F9211242F933F934F9303
:100A90005F936F937F938F939F93AF93BF93EF93E6
:100AA000FF93E091A800F091A900309709F0099513
:100AB000FF91EF91BF91AF919F918F917F916F9136
:100AC0005F914F913F912F910F900FBE0F901F900C
:100AD0001895A1E21A2EAA1BBB1BFD010DC0AA1F6F
:100AE000BB1FEE1FFF1FA217B307E407F50720F097
:100AF000A21BB30BE40BF50B661F771F881F991F12
:100B00001A9469F760957095809590959B01AC015A
:100B1000BD01CF010895052E97FB1EF400940E949D
:100B2000A20557FD07D00E94690507FC03D04EF4CB
:100B30000C94A20550954095309521953F4F4F4F0D
:100B40005F4F089590958095709561957F4F8F4F79
:100B50009F4F0895EE0FFF1F0590F491E02D09942B
:040B6000F894FFCF37
:100B640077656C636F6D6520737069000000000029
:100B74000000000000000000000001000000000070
:100B8400000000000100000000000000000100005F
:020B940002005D
:00000001FF
