:100000000C942A000C943F000C943F000C943F0089
:100010000C943F000C943F000C943F000C943F0064
:100020000C943F000C943F000C943F000C943F0054
:100030000C943F000C943F000C943F000C943F0044
:100040000C943F000C943F000C943F000C943F0034
:100050000C943F0011241FBECFE5D8E0DEBFCDBF1A
:1000600010E0A0E6B0E0EAEBFBE002C005900D92E4
:10007000AE3AB107D9F70E94B9010C94DB050C9494
:100080000000DF92EF92FF920F931F93CF93DF93C5
:1000900061E084E00E94CC0361E085E00E94CC0333
:1000A00061E086E00E94CC0361E087E00E94CC031F
:1000B00080E6E82E80E0F82E14E00EE260E0812F6A
:1000C0000E94CC03C0E0D0E0DC2E8C2F0E944D04B7
:1000D000811109C0F701EC0FFD1F00818D2D0E94D9
:1000E0004D048823D9F32196C430D10569F761E026
:1000F000812F0E94CC031F5F84E0E80EF11C1830B2
:10010000E9F6802FDF91CF911F910F91FF90EF9033
:10011000DF900895682F83E00E946A0460E08AE01F
:100120000E94CC0360E089E00E94CC0361E088E09B
:100130000E94CC038FEC97E00197F1F700C000001C
:1001400060E088E00E94CC038FEC97E00197F1F724
:1001500000C000000895682F83E00E946A0461E0F7
:100160008AE00E94CC0360E089E00E94CC0361E059
:1001700088E00E94CC038FEC97E00197F1F700C074
:10018000000060E088E00E94CC038FEC97E00197CC
:10019000F1F700C0000008958FE39CE90197F1F7A3
:1001A00000C0000088E30E948A008CE00E948A0060
:1001B00081E00E948A008FE99FE00197F1F700C07B
:1001C000000008950C94AB000F931F93CF938C0104
:1001D000C0E0F801EC0FF11D8081882321F00E941E
:1001E000AB00CF5FF6CFCF911F910F910895813073
:1001F00039F058F0823031F0833031F46C5A05C058
:10020000605C03C06C5E01C060E0862F80680C9467
:100210008A00CF93DF93EA010E94F700CE01DF91BD
:10022000CF910C94E4002F923F924F925F926F9285
:100230007F928F929F92AF92BF92CF92DF92EF9276
:10024000FF920F931F93CF93DF93CDB7DEB72D9718
:100250000FB6F894DEBF0FBECDBF29013A014B01A6
:100260001C01A0E00E949E05D9F480E32D960FB6F4
:10027000F894DEBF0FBECDBFDF91CF911F910F91DC
:10028000FF90EF90DF90CF90BF90AF909F908F90B6
:100290007F906F905F904F903F902F900C94AB00A9
:1002A000A0E00E949E056CF48DE20E94AB009201DA
:1002B000A301B401C1010E94570529013A014B0174
:1002C0001C011B8681E090E08C0F9D1FEB858E0F3B
:1002D000911D9D878C878AE0A82EB12CC12CD12C32
:1002E000E12CF12C00E010E09201A301B401C10166
:1002F0000E94C704205DEC85FD8520839201A30147
:10030000B401C1010E94C90429013A014B011C0139
:10031000FB85FF5FFB87A0E00E949E0599F69B8509
:10032000992359F0FE012B85E20FF11D80810E9477
:10033000AB008B8581508B87F2CF2D960FB6F8944A
:10034000DEBF0FBECDBFDF91CF911F910F91FF9008
:10035000EF90DF90CF90BF90AF909F908F907F9065
:100360006F905F904F903F902F90089581E00C9494
:100370008A00CF93DF93CDB7DEB727970FB6F894F7
:10038000DEBF0FBECDBF0E947A040E94CC0040E7C2
:1003900050E065E080E00E94090160E081E00E9499
:1003A000F700312C1D8210E0212C00E0C12CD12C53
:1003B0007601412C512C3201812C912C54010E9448
:1003C00041008E838E32D9F380538A30C0F52110DC
:1003D0004AC08E810E94E2009E81892F90E0A0E0B9
:1003E000B0E089839A83AB83BC83AAE0B0E00111BB
:1003F00012C0A50194010E94BC0489809A80AB8040
:10040000BC80860E971EA81EB91EA0E38A1A91080A
:10041000A108B10828C0A30192010E94BC04498030
:100420005A806B807C80460E571E681E791EB0E392
:100430004B1A5108610871083324339414C08E811B
:100440008D3259F4311012C0013081F40E94E20063
:100450003324339491E09D83B2CF8E818B3231F07F
:10046000AE81AA3219F0BE81BF3231F4013009F4F5
:10047000A6CF113009F088C0BE81BD3309F074C029
:100480008D81813049F47094609450944094411C63
:10049000511C611C711C1D82332069F09F819B32AD
:1004A00071F018F49A3219F13DC0AF81AD32A1F06C
:1004B000AF3249F137C0AF81AB3241F411E0750181
:1004C0006401C40CD51CE61CF71C2CC0AC3258F0DF
:1004D000BF81BD32A9F411E075016401C418D508CB
:1004E000E608F7081FC0AA3209F045C011E0A501CF
:1004F0009401C301B2010E948D046B017C0112C002
:10050000BF32C9F511E0411451046104710449F08E
:10051000C501B401A30192010E949D0469017A0101
:1005200001C011E060E082E00E94F700113041F468
:100530004BE750E062E082E00E94090111E020C038
:100540009601A701D701C601BB0F880B982FDC01CC
:1005500089839A83AB83BC836981762F862F962FFC
:100560000E94130110E00CC09E81933409F027CF44
:100570000E94B6010CCF60E082E00E94F700D8CF65
:100580002224239400E01BCF211007C08E810E94FB
:10059000E2008E818F83312C26C091E029126CCF2E
:1005A0000E94B60140E750E065E080E00E9409014A
:1005B00060E081E00E94F7009601A7014601570123
:1005C000BB0C8808982C5401682D782D882D982D07
:1005D0000E9413018E810E94E20046015701AE8104
:1005E000AF83312C212C01E0412C512C320144CF1E
:1005F000982F97708695869586956130E9F120F061
:10060000623009F479C00895813091F028F0823089
:10061000D9F0833029F108954AB321E030E0B901DF
:1006200002C0660F771F9A95E2F7CB01842B38C082
:1006300047B321E030E0B90102C0660F771F9A95F9
:10064000E2F7CB01842B3AC044B321E030E0B9019A
:1006500002C0660F771F9A95E2F7CB01842B3CC04E
:1006600041B321E030E0B90102C0660F771F9A95CF
:10067000E2F7CB01842B3EC08130A1F028F082301C
:10068000F9F0833059F108954AB321E030E0B9011F
:1006900002C0660F771F9A95E2F7CB0180958423FD
:1006A0008ABB089547B321E030E0B90102C0660F6C
:1006B000771F9A95E2F7CB018095842387BB089535
:1006C00044B321E030E0B90102C0660F771F9A956C
:1006D000E2F7CB018095842384BB089541B321E0E8
:1006E00030E0B90102C0660F771F9A95E2F7CB019F
:1006F0008095842381BB08958130C1F028F0823039
:1007000039F18330B9F108954AB321E030E0B901FD
:1007100002C0660F771F9A95E2F7CB01962F90954E
:1007200094239ABB9BB3892B8BBB089547B321E0DD
:1007300030E0B90102C0660F771F9A95E2F7CB014E
:10074000962F9095942397BB98B3892B88BB0895D7
:1007500044B321E030E0B90102C0660F771F9A95DB
:10076000E2F7CB01962F9095942394BB95B3892BF8
:1007700085BB089541B321E030E0B90102C0660FA6
:10078000771F9A95E2F7CB01962F9095942391BB12
:1007900092B3892B82BB0895982F97708695869582
:1007A00086956130C1F5813091F028F08230D9F022
:1007B000833029F108954BB321E030E0B90102C044
:1007C000660F771F9A95E2F7CB01842B3AC048B3A6
:1007D00021E030E0B90102C0660F771F9A95E2F779
:1007E000CB01842B3CC045B321E030E0B90102C00D
:1007F000660F771F9A95E2F7CB01842B3EC042B378
:1008000021E030E0B90102C0660F771F9A95E2F748
:10081000CB01842B40C061113FC08130A1F028F092
:100820008230F9F0833059F108954BB321E030E084
:10083000B90102C0660F771F9A95E2F7CB01809548
:1008400084238BBB089548B321E030E0B90102C096
:10085000660F771F9A95E2F7CB018095842388BBBA
:10086000089545B321E030E0B90102C0660F771F5B
:100870009A95E2F7CB018095842385BB089542B316
:1008800021E030E0B90102C0660F771F9A95E2F7C8
:10089000CB018095842382BB0895282F27708695ED
:1008A00086958695813049F030F0823041F0833072
:1008B00079F480B305C089B303C086B301C083B3A4
:1008C00090E002C0959587952A95E2F7817008958A
:1008D00080E00895813041F028F0823039F0833093
:1008E00039F008956BBB089568BB089565BB089502
:1008F00062BB08950F931F93CF930DE810E0C0E003
:10090000F80161918F018C2F0E94F802CF5FC032F5
:10091000B9F7CF911F910F910895DB018F939F93AA
:100920000E94BC04BF91AF91A29F800D911DA39F17
:10093000900DB29F900D11240895052E97FB1EF483
:1009400000940E94B40457FD07D00E94AA0507FC3A
:1009500003D04EF40C94B4045095409530952195F5
:100960003F4F4F4F5F4F08959095809570956195DB
:100970007F4F8F4F9F4F08950E94CC05A59F900DEC
:10098000B49F900DA49F800D911D1124089568942B
:1009900001C0E894F92FF12B12F00C94FB04A0E0B5
:1009A000B0E0E5EDF4E00C946D05092E059422F419
:1009B0000E945705112392F4F0E80F26FFEFE09410
:1009C000F09400951095B094C094D094A194BF0A6F
:1009D000CF0ADF0AEF0AFF0A0F0B1F0B0E94060562
:1009E00007FC0E945705CDB7DEB7ECE00C948905F3
:1009F000689401C0E8948F929F92CF93DF930E94F6
:100A00000605DF91CF919F908F90089588249924B7
:100A1000F401E401B0E49F93AA279A158B049C0487
:100A2000ED05FE05CF05D007A10798F4AD2FDC2F0B
:100A3000CF2FFE2FE92D982C892E982F872F762FD8
:100A4000652F542F432F322F2227B85031F7BF91F3
:100A500027C01B2EBF91BB27220F331F441F551FDA
:100A6000661F771F881F991F881C991CEE1FFF1F88
:100A7000CC1FDD1FAA1FBB1F8A149B04EC05FD05BC
:100A8000CE05DF05A007B10748F08A189B08EC09DE
:100A9000FD09CE09DF09A00BB10B21601A94E1F624
:100AA0002EF49401AF01BE01CD01000C08956095B4
:100AB00070958095909530954095509521953F4F34
:100AC0004F4F5F4F6F4F7F4F8F4F9F4F08952F9224
:100AD0003F924F925F926F927F928F929F92AF92CE
:100AE000BF92CF92DF92EF92FF920F931F93CF931B
:100AF000DF93CDB7DEB7CA1BDB0B0FB6F894DEBFB2
:100B00000FBECDBF09942A88398848885F846E84D7
:100B10007D848C849B84AA84B984C884DF80EE8021
:100B2000FD800C811B81AA81B981CE0FD11D0FB62A
:100B3000F894DEBF0FBECDBFED0108950024A7FDE0
:100B400000942A17300540055005600570058005A2
:100B500090050895A1E21A2EAA1BBB1BFD010DC032
:100B6000AA1FBB1FEE1FFF1FA217B307E407F5075D
:100B700020F0A21BB30BE40BF50B661F771F881F39
:100B8000991F1A9469F760957095809590959B01CF
:100B9000AC01BD01CF010895A29FB001B39FC00178
:100BA000A39F700D811D1124911DB29F700D811D99
:0A0BB0001124911D0895F894FFCF61
:100BBA003738392F3435362A3132332D43303D2BED
:100BCA0043616C63756C61746F7200496E76616C17
:100BDA006964204F7065726174696F6E0002020267
:100BEA0002000000000000000000000000000000F9
:0E0BFA000000000000000000000000000000ED
:00000001FF
