S01300004156525F447269766572732E73726563EA
S11300000C9438000C9465050C948E050C94B7057B
S11300100C9455000C9455000C940A070C94B806E3
S11300200C94E1060C948F060C9466060C943D0621
S11300300C9455000C9498070C94EA070C94C1078F
S11300400C94C4030C9455000C9455000C94550066
S11300500C94550072077407760778077A077C07B3
S11300607E07800782078407860786078907890732
S113007011241FBECFE5D8E0DEBFCDBF10E0A0E65F
S1130080B0E0EEE2F3E102C005900D92A63FB107A5
S1130090D9F721E0A6EFB0E001C01D92A731B20765
S11300A0E1F70E9400030C9495090C940000682F5A
S11300B082E00E94420560E085E00E94C10460E0A5
S11300C086E00E94C10461E087E00E94C1048FECD5
S11300D097E00197F1F700C0000060E087E00E941C
S11300E0C1048FEC97E00197F1F700C00000089578
S11300F0682F82E00E94420561E085E00E94C1040D
S113010060E086E00E94C10461E087E00E94C104CF
S11301108FEC97E00197F1F700C0000060E087E002
S11301200E94C1048FEC97E00197F1F700C0000032
S113013008958FE39CE90197F1F700C0000088E37C
S11301400E9457008CE00E94570081E00E945700F3
S11301508FE99FE00197F1F700C0000008950C9427
S113016078000F931F93CF938C01C0E0F801EC0F3C
S1130170F11D8081882321F00E947800CF5FF6CFA3
S1130180CF911F910F910895813039F058F082304A
S113019031F0833031F46C5A05C0605C03C06C5E8E
S11301A001C060E0862F80680C9457002F923F9224
S11301B04F925F926F927F928F929F92AF92BF9273
S11301C0CF92DF92EF92FF920F931F93CF93DF931F
S11301D0CDB7DEB72D970FB6F894DEBF0FBECDBFF7
S11301E029013A014B011C01A0E00E948009D9F4C5
S11301F080E32D960FB6F894DEBF0FBECDBFDF911E
S1130200CF911F910F91FF90EF90DF90CF90BF900F
S1130210AF909F908F907F906F905F904F903F90A2
S11302202F900C947800A0E00E9480096CF48DE279
S11302300E9478009201A301B401C1010E9439090E
S113024029013A014B011C011B8681E090E08C0FCF
S11302509D1FEB858E0F911D9D878C878AE0A82EAC
S1130260B12CC12CD12CE12CF12C00E010E0920136
S1130270A301B401C1010E94A908205DEC85FD859C
S113028020839201A301B401C1010E94AB0829019A
S11302903A014B011C01FB85FF5FFB87A0E00E9434
S11302A0800999F69B85992359F0FE012B85E20F6D
S11302B0F11D80810E9478008B8581508B87F2CF5D
S11302C02D960FB6F894DEBF0FBECDBFDF91CF9150
S11302D01F910F91FF90EF90DF90CF90BF90AF9060
S11302E09F908F907F906F905F904F903F902F9052
S11302F0089580E00E94B6039C01A8E8B3E10E943F
S11303009A08DC01CB012AE0B695A79597958795C5
S11303102A95D1F7089581E00E94B6039C012753E2
S11303203109A8EEB3E00E949A0829E933E040E0DD
S113033050E00E947208C9018A569F4F089562E0F6
S113034083E00E94E00582E00E941C068FE19EE4A7
S11303500E943A0687EE93E00C943706853B08F03A
S1130360845B282F30E0A8EEB3E00E949A0824EBC7
S113037030E040E050E00E947208C90189519C4F6E
S11303800C943706CF93DF93AB0120E03AE0E22FE1
S1130390F0E0882349F0E40FF51F632F0E94520810
S11303A0905D90832F5FF3CF922F9695E40FF51F06
S11303B0EF01342FDA018A2F831B891728F48C91DB
S11303C04A914D938883F7CF1082822FDF91CF918A
S11303D00895EF92FF920F931F93CF93DF93CDB7BE
S11303E0DEB764970FB6F894DEBF0FBECDBF8C01A5
S11303F0F62E60E670E00E948C09892B21F48F2D83
S11304000E94AE01B1C066E670E0C8010E948C098A
S1130410892B99F468E083E00E94C4002F2D30E01A
S113042040E050E060E070E080E090E00E94D600A0
S11304308EEC90E00E94B10097C06AE670E0C801BB
S11304400E948C09892B11F461E008C060E770E018
S1130450C8010E948C09892B31F460E088E08F0D7B
S11304600E94C10481C067E770E0C8010E948C0942
S1130470892BC1F58E010F5F1F4F84E1F8011192A2
S11304808A95E9F780911501909116013AE0E32EDF
S1130490F12CB7010E945E08862FB8010E94C201A8
S11304A0282F30E0F801E20FF31F8EE28083FE0173
S11304B0E20FF31F8091150190911601B7010E947C
S11304C05E08805D8283FE01E20FF31F13828CE7D6
S11304D090E00E943508C8010E94350883E40E9418
S11304E08B0742C06BE870E0C8010E948C09892B1D
S11304F0B9F58E010F5F1F4F84E1F80111928A95BF
S1130500E9F780911301909114012AE0E22EF12C75
S1130510B7010E945E08862FB8010E94C201282FED
S113052030E0F801E20FF31F8EE28083FE01E20F58
S1130530F31F8091130190911401B7010E945E088A
S1130540805D8283FE01E20FF31F138284E990E051
S11305500E943508C8010E94350880EA90E002C074
S113056084EA90E00E94350864960FB6F894DEBFE2
S11305700FBECDBFDF91CF911F910F91FF90EF90F0
S11305800895CF93DF93CDB7DEB72A970FB6F894CB
S1130590DEBF0FBECDBFAC01FE0131968AE0DF01A4
S11305A01D928A95E9F790E0292F30E0DA01A20F35
S11305B0B31F8C91682F6F7D9F5FDF01A20FB31F64
S11305C0662311F08C93F0CF1C92DA01A90FB11DB0
S11305D02C91222349F0660F862F880F880F680F0D
S11305E06053620F9F5FF1CFCF010E94E9012A9609
S11305F00FB6F894DEBF0FBECDBFDF91CF91089543
S1130600CF93DF93CDB7DEB7C456D1090FB6F894B4
S1130610DEBF0FBECDBF8E010F5F1F4F84E6F80112
S113062011928A95E9F778940E9452050E949900E4
S11306300E9433070E949F0166E080E00E94A103AC
S113064086EB90E00E94B10060E180E00E94C4006B
S113065083E40E94AF0060E081E00E94C4008DEB5F
S113066090E00E94B10060E181E00E94C40084EC4B
S113067090E00E94B10060E083E00E94C40088EC36
S113068090E00E94B100C8010E9448088AE0E82E68
S1130690F12C0E94790190931601809315010E9418
S11306A08B01909314018093130168E080E00E9411
S11306B0C4008091150190911601B7010E945E0853
S11306C09B0140E050E060E070E080E090E00E9438
S11306D0D6008DEC90E00E94B10068E081E00E94B9
S11306E0C4008091130190911401B7010E945E0827
S11306F09B0140E050E060E070E080E090E00E9408
S1130700D6008EE20E94AF008091130190911401F3
S1130710B7010E945E089C0140E050E060E070E098
S113072080E090E00E94D6008DEC90E00E94B10041
S11307308981882309F4ADCFC8010E94C1021982BE
S1130740A8CF813041F028F0823039F43E9A3F9AA4
S113075004C03E9801C03E9A3F9886B1887F86B90E
S113076086B1682B66B93D98379A089597B1907E03
S113077097B997B18F71982B97B9369A3699FECF5E
S113078084B195B1937008951F920F920FB60F9292
S113079011242F933F934F935F936F937F938F9382
S11307A09F93AF93BF93EF93FF93E091F600F09183
S11307B0F700309709F00995FF91EF91BF91AF9140
S11307C09F918F917F916F915F914F913F912F9165
S11307D00F900FBE0F901F901895982F97708695C5
S11307E0869586956130E9F120F0623009F479C08C
S11307F00895813091F028F08230D9F0833029F1C6
S113080008954AB321E030E0B90102C0660F771FB2
S11308109A95E2F7CB01842B38C047B321E030E04E
S1130820B90102C0660F771F9A95E2F7CB01842BBA
S11308303AC044B321E030E0B90102C0660F771F2B
S11308409A95E2F7CB01842B3CC041B321E030E020
S1130850B90102C0660F771F9A95E2F7CB01842B8A
S11308603EC08130A1F028F08230F9F0833059F194
S113087008954AB321E030E0B90102C0660F771F42
S11308809A95E2F7CB01809584238ABB089547B3F8
S113089021E030E0B90102C0660F771F9A95E2F7B4
S11308A0CB018095842387BB089544B321E030E0D5
S11308B0B90102C0660F771F9A95E2F7CB018095C4
S11308C0842384BB089541B321E030E0B90102C020
S11308D0660F771F9A95E2F7CB018095842381BB3D
S11308E008958130C1F028F0823039F18330B9F1B4
S11308F008954AB321E030E0B90102C0660F771FC2
S11309009A95E2F7CB01962F909594239ABB9BB3CB
S1130910892B8BBB089547B321E030E0B90102C0B5
S1130920660F771F9A95E2F7CB01962F9095942343
S113093097BB98B3892B88BB089544B321E030E07A
S1130940B90102C0660F771F9A95E2F7CB01962F83
S11309509095942394BB95B3892B85BB089541B39B
S113096021E030E0B90102C0660F771F9A95E2F7E3
S1130970CB01962F9095942391BB92B3892B82BB84
S11309800895982F97708695869586956130C1F560
S1130990813091F028F08230D9F0833029F1089524
S11309A04BB321E030E0B90102C0660F771F9A957E
S11309B0E2F7CB01842B3AC048B321E030E0B9011F
S11309C002C0660F771F9A95E2F7CB01842B3CC0D7
S11309D045B321E030E0B90102C0660F771F9A9554
S11309E0E2F7CB01842B3EC042B321E030E0B901F1
S11309F002C0660F771F9A95E2F7CB01842B40C0A3
S1130A0061113FC08130A1F028F08230F9F08330C9
S1130A1059F108954BB321E030E0B90102C0660FEB
S1130A20771F9A95E2F7CB01809584238BBB0895B9
S1130A3048B321E030E0B90102C0660F771F9A95F0
S1130A40E2F7CB018095842388BB089545B321E068
S1130A5030E0B90102C0660F771F9A95E2F7CB0127
S1130A608095842385BB089542B321E030E0B90129
S1130A7002C0660F771F9A95E2F7CB018095842315
S1130A8082BB0895813041F028F0823039F0833000
S1130A9039F008956BBB089568BB089565BB08954C
S1130AA062BB08950F931F93CF9302ED10E0C0E053
S1130AB0F80161918F018C2F0E94ED03CF5FC0324A
S1130AC0B9F7CF911F910F9108951F920F920FB60E
S1130AD00F9211242F933F934F935F936F937F93C0
S1130AE08F939F93AF93BF93EF93FF93E091FC0099
S1130AF0F091FD00309709F00995FF91EF91BF91B6
S1130B00AF919F918F917F916F915F914F913F91A1
S1130B102F910F900FBE0F901F9018951F920F9258
S1130B200FB60F9211242F933F934F935F936F93BC
S1130B307F938F939F93AF93BF93EF93FF93E09132
S1130B40FA00F091FB00309709F00995FF91EF91BD
S1130B50BF91AF919F918F917F916F915F914F91D1
S1130B603F912F910F900FBE0F901F9018951F92D9
S1130B700F920FB60F9211242F933F934F935F93CD
S1130B806F937F938F939F93AF93BF93EF93FF9351
S1130B90E091F800F091F900309709F00995FF9180
S1130BA0EF91BF91AF919F918F917F916F915F91E1
S1130BB04F913F912F910F900FBE0F901F9018955A
S1130BC08230D9F050F4882379F0813071F58FB5F3
S1130BD08E7F8FBD8FB58D7F21C08330D1F084305F
S1130BE021F58FB5816017C08FB58E7F8FBD8FB50E
S1130BF08D7F8FBD8EB5877F08C08FB58E7F8FBDEB
S1130C008FB58D7F8FBD8EB588608EBD8EB58F7E7E
S1130C100BC08FB58E7F8FBD8FB582608FBD8EB5B3
S1130C2088608EBD8EB580618EBD8EB5887F8EBD89
S1130C308EB5682B6EBD0895813049F028F082305E
S1130C4061F0833069F008958FB58F7E02C08FB54F
S1130C5080618FBD8FB58F7D08C08FB58F7E02C038
S1130C608FB580618FBD8FB580628FBD089599BDAA
S1130C7088BD089597BD86BD08951F920F920FB643
S1130C800F9211242F933F934F935F936F937F930E
S1130C908F939F93AF93BF93EF93FF93E0910801DA
S1130CA0F0910901309709F00995FF91EF91BF91F7
S1130CB0AF919F918F917F916F915F914F913F91F0
S1130CC02F910F900FBE0F901F9018951F920F92A7
S1130CD00FB60F9211242F933F934F935F936F930B
S1130CE07F938F939F93AF93BF93EF93FF93E09181
S1130CF00601F0910701309709F00995FF91EF91F2
S1130D00BF91AF919F918F917F916F915F914F911F
S1130D103F912F910F900FBE0F901F9018951F9227
S1130D200F920FB60F9211242F933F934F935F931B
S1130D306F937F938F939F93AF93BF93EF93FF939F
S1130D40E0910401F0910501309709F00995FF91B4
S1130D50EF91BF91AF919F918F917F916F915F912F
S1130D604F913F912F910F900FBE0F901F901895A8
S1130D701F920F920FB60F9211242F933F934F930C
S1130D805F936F937F938F939F93AF93BF93EF93EF
S1130D90FF93E0910201F0910301309709F0099566
S1130DA0FF91EF91BF91AF919F918F917F916F913F
S1130DB05F914F913F912F910F900FBE0F901F9015
S1130DC018951F920F920FB60F9211242F933F93F1
S1130DD04F935F936F937F938F939F93AF93BF933F
S1130DE0EF93FF93E0910001F0910101309709F036
S1130DF00995FF91EF91BF91AF919F918F917F9151
S1130E006F915F914F913F912F910F900FBE0F9073
S1130E101F9018951F920F920FB60F9211242F93C3
S1130E203F934F935F936F937F938F939F93AF936E
S1130E30BF93EF93FF93E091FE00F091FF00309792
S1130E4009F00995FF91EF91BF91AF919F918F9117
S1130E507F916F915F914F913F912F910F900FBEB2
S1130E600F901F9018955998539A549A8091F200B4
S1130E70813021F0823021F480EB03C080EA01C08C
S1130E8080E89091F300911102C0877F03C09130F4
S1130E9009F488609091F400923089F038F4992331
S1130EA061F0913091F48B7F82600BC0933059F0E4
S1130EB0943059F48660529A08C0897F02C08D7FAD
S1130EC08460529802C08660FCCF80BDE091F5003A
S1130ED08E2F90E08E309105E8F4FC01E65DFF4F23
S1130EE00C9494088FEC13C087E611C083E30FC001
S1130EF082E20DC089E10BC080E109C08CE007C02B
S1130F0088E005C086E003C083E001C081E089B9C0
S1130F10089519B808955D9BFECF8CB908958CB1DE
S1130F200895579A089590930D0180930C010895A4
S1130F301F920F920FB60F9211242F933F934F934A
S1130F405F936F937F938F939F93AF93BF93EF932D
S1130F50FF93E0910C01F0910D01309709F0099590
S1130F60FF91EF91BF91AF919F918F917F916F917D
S1130F705F914F913F912F910F900FBE0F901F9053
S1130F8018951F920F920FB60F9211242F933F932F
S1130F904F935F936F937F938F939F93AF93BF937D
S1130FA0EF93FF93E0910E01F0910F01309709F058
S1130FB00995FF91EF91BF91AF919F918F917F918F
S1130FC06F915F914F913F912F910F900FBE0F90B2
S1130FD01F9018951F920F920FB60F9211242F9302
S1130FE03F934F935F936F937F938F939F93AF93AD
S1130FF0BF93EF93FF93E0910A01F0910B013097B7
S113100009F00995FF91EF91BF91AF919F918F9155
S11310107F916F915F914F913F912F910F900FBEF0
S11310200F901F901895CF93DF9380911001C0917A
S11310301101D0911201C80FD11D0E948F0788831E
S113104080911001E0911101F0911201E80FF11D5E
S11310509081933221F410821092100103C08F5FAB
S113106080931001DF91CF9108950F931F93CF9335
S11310708C01C0E0F801EC0FF11D8081882321F080
S11310800E948B07CF5FF6CFCF911F910F910895E8
S113109090931201809311010E94910783E198E0DB
S11310A00C949307991B79E004C0991F961708F0D4
S11310B0961B881F7A95C9F780950895AA1BBB1BB8
S11310C051E107C0AA1FBB1FA617B70710F0A61B44
S11310D0B70B881F991F5A95A9F780959095BC0165
S11310E0CD010895A1E21A2EAA1BBB1BFD010DC060
S11310F0AA1FBB1FEE1FFF1FA217B307E407F507C4
S113110020F0A21BB30BE40BF50B661F771F881F9F
S1131110991F1A9469F760957095809590959B0135
S1131120AC01BD01CF010895EE0FFF1F0590F491AE
S1131130E02D0994A29FB001B39FC001A39F700D3D
S1131140811D1124911DB29F700D811D1124911DCB
S11311500895689401C0E894F92FF12B12F00C94CF
S1131160DD08A0E0B0E0E7EBF8E00C944F09092EAD
S1131170059422F40E943909112392F4F0E80F2611
S1131180FFEFE094F09400951095B094C094D0943F
S1131190A194BF0ACF0ADF0AEF0AFF0A0F0B1F0B45
S11311A00E94E80807FC0E943909CDB7DEB7ECE0DD
S11311B00C946B09689401C0E8948F929F92CF932A
S11311C0DF930E94E808DF91CF919F908F9008955C
S11311D088249924F401E401B0E49F93AA279A1582
S11311E08B049C04ED05FE05CF05D007A10798F4F8
S11311F0AD2FDC2FCF2FFE2FE92D982C892E982F81
S1131200872F762F652F542F432F322F2227B85044
S113121031F7BF9127C01B2EBF91BB27220F331F6D
S1131220441F551F661F771F881F991F881C991C10
S1131230EE1FFF1FCC1FDD1FAA1FBB1F8A149B04B8
S1131240EC05FD05CE05DF05A007B10748F08A18B7
S11312509B08EC09FD09CE09DF09A00BB10B216045
S11312601A94E1F62EF49401AF01BE01CD01000CF5
S1131270089560957095809590953095409550951A
S113128021953F4F4F4F5F4F6F4F7F4F8F4F9F4F72
S113129008952F923F924F925F926F927F928F9216
S11312A09F92AF92BF92CF92DF92EF92FF920F93F1
S11312B01F93CF93DF93CDB7DEB7CA1BDB0B0FB6FB
S11312C0F894DEBF0FBECDBF09942A8839884888B8
S11312D05F846E847D848C849B84AA84B984C8844E
S11312E0DF80EE80FD800C811B81AA81B981CE0F45
S11312F0D11D0FB6F894DEBF0FBECDBFED0108952A
S11313000024A7FD00942A17300540055005600508
S11313107005800590050895FB01DC018D91019015
S111132080190110D9F3990B0895F894FFCFAA
S113132E736572766F006C6364006C65646F6E0037
S113133E6C65646F66660074656D700054656D70DF
S113134E65726174757265203D20007072657373E9
S113135E757265005072657373757265203D200059
S113136E4B504100556E646566696E656420436F2B
S113137E6D6D616E640054656D703A200050726537
S113138E733A20006B5041004E756D3A00202020B8
S113139E2000010100000000000000000000000019
S11313AE000000000000000000000100000000002A
S10913BE00000000030220
S9030000FC
