:100000000C9438000C942B050C9454050C947D052D
:100010000C9455000C9455000C94D0060C947E065C
:100020000C94A7060C9455060C942C060C9403060D
:100030000C9455000C94A5070C94CE070C947C07E7
:100040000C948A030C9455000C9455000C945500A4
:100050000C9455005407560759075B075D075F0767
:100060006107630765076707690769076B076B0720
:1000700011241FBECFE5D8E0DEBFCDBF10E0A0E663
:10008000B0E0EEE6F1E102C005900D92A63FB107A7
:10009000D9F721E0A6EFB0E001C01D92A731B20769
:1000A000E1F70E94D4020C94B5080C940000682F6C
:1000B00082E00E94080560E085E00E94870460E01D
:1000C00086E00E94870461E087E00E9487048FEC4D
:1000D00097E00197F1F700C0000060E087E00E9420
:1000E00087048FEC97E00197F1F700C000000895B6
:1000F000682F82E00E94080561E085E00E94870485
:1001000060E086E00E94870461E087E00E94870447
:100110008FEC97E00197F1F700C0000060E087E006
:100120000E9487048FEC97E00197F1F700C0000070
:1001300008958FE39CE90197F1F700C0000088E380
:100140000E9457008CE00E94570081E00E945700F7
:100150008FE99FE00197F1F700C0000008950C942B
:1001600078000F931F93CF938C01C0E0F801EC0F40
:10017000F11D8081882321F00E947800CF5FF6CFA7
:10018000CF911F910F910895813039F058F082304E
:1001900031F0833031F46C5A05C0605C03C06C5E92
:1001A00001C060E0862F80680C9457004F925F92E8
:1001B0006F927F92AF92BF92CF92DF92EF92FF92B7
:1001C0001F93CF93DF93CDB7DEB72A970FB6F8947E
:1001D000DEBF0FBECDBF6B017C01611571058105CE
:1001E0009105B1F480E32A960FB6F894DEBF0FBEF6
:1001F000CDBFDF91CF911F91FF90EF90DF90CF9017
:10020000BF90AF907F906F905F904F900C9478006C
:1002100097FF0BC08DE20E947800F094E094D09498
:10022000C094C11CD11CE11CF11C10E09AE0492EC5
:10023000512C612C712CAA24A394B12CAC0EBD1EA0
:10024000A10EB11CC701B601A30192010E9478085A
:10025000605DF501608369017A011F5FC114D104FB
:10026000E104F10441F7112341F0FE01E10FF11D1A
:1002700080810E9478001150F6CF2A960FB6F8942C
:10028000DEBF0FBECDBFDF91CF911F91FF90EF90EA
:10029000DF90CF90BF90AF907F906F905F904F9026
:1002A000089580E00E947C039C01A8E8B3E10E94CD
:1002B0009D08DC01CB012AE0B695A7959795879517
:1002C0002A95D1F7089581E00E947C039C01275371
:1002D0003109A8EEB3E00E949D0829E933E040E02F
:1002E00050E00E945608C9018A569F4F089562E067
:1002F00083E00E94A60582E00E94E2058FE19EE471
:100300000E94000687EE93E00C94FD05853B08F003
:10031000845B282F30E0A8EEB3E00E949D0824EB18
:1003200030E040E050E00E945608C90189519C4FDE
:100330000C94FD05CF93DF93AB0120E03AE0E22F70
:10034000F0E0882349F0E40FF51F632F0E94360880
:10035000905D90832F5FF3CF922F9695E40FF51F5A
:10036000EF01342FDA018A2F831B891728F48C912F
:100370004A914D938883F7CF1082822FDF91CF91DE
:100380000895EF92FF920F931F93CF93DF93CDB712
:10039000DEB764970FB6F894DEBF0FBECDBF8C01F9
:1003A000F62E60E670E00E94AC08892B21F48F2DB8
:1003B0000E948601ADC066E670E0C8010E94AC08EC
:1003C000892B79F468E083E00E94C4006F2D70E00F
:1003D00080E090E00E94D6008EEC90E00E94B10098
:1003E00097C06AE670E0C8010E94AC08892B11F43E
:1003F00061E008C060E770E0C8010E94AC08892B8A
:1004000031F460E088E08F0D0E94870481C067E7C7
:1004100070E0C8010E94AC08892BC1F58E010F5F06
:100420001F4F84E1F80111928A95E9F78091150137
:10043000909116013AE0E32EF12CB7010E94420898
:10044000862FB8010E949A01282F30E0F801E20FB0
:10045000F31F8EE28083FE01E20FF31F80911501EE
:1004600090911601B7010E944208805D8283FE01CF
:10047000E20FF31F13828CE790E00E941908C80175
:100480000E94190883E40E946F0742C06BE870E085
:10049000C8010E94AC08892BB9F58E010F5F1F4F70
:1004A00084E1F80111928A95E9F780911301909106
:1004B00014012AE0E22EF12CB7010E944208862F97
:1004C000B8010E949A01282F30E0F801E20FF31FD3
:1004D0008EE28083FE01E20FF31F80911301909161
:1004E0001401B7010E944208805D8283FE01E20F81
:1004F000F31F138284E990E00E941908C8010E944A
:10050000190880EA90E002C084EA90E00E9419088D
:1005100064960FB6F894DEBF0FBECDBFDF91CF91CA
:100520001F910F91FF90EF900895CF93DF93CDB778
:10053000DEB72A970FB6F894DEBF0FBECDBFAC0171
:10054000FE0131968AE0DF011D928A95E9F790E07D
:10055000292F30E0DA01A20FB31F8C91682F6F7D35
:100560009F5FDF01A20FB31F662311F08C93F0CFC2
:100570001C92DA01A90FB11D2C91222349F0660FBC
:10058000862F880F880F680F6053620F9F5FF1CF2F
:10059000CF010E94C1012A960FB6F894DEBF0FBEAC
:1005A000CDBFDF91CF910895CF93DF93CDB7DEB765
:1005B000C456D1090FB6F894DEBF0FBECDBF8E0171
:1005C0000F5F1F4F84E6F80111928A95E9F778943E
:1005D0000E9418050E9499000E94F9060E94770166
:1005E00066E080E00E94670386EB90E00E94B10025
:1005F00060E180E00E94C40083E40E94AF0060E0FC
:1006000081E00E94C4008DEB90E00E94B10060E1A7
:1006100081E00E94C40084EC90E00E94B10060E0A0
:1006200083E00E94C40088EC90E00E94B100C80101
:100630000E942C088AE0E82EF12C0E945101909330
:100640001601809315010E94630190931401809319
:10065000130168E080E00E94C40080911501909130
:100660001601B7010E94420880E090E00E94D60087
:100670008DEC90E00E94B10068E081E00E94C4002F
:100680008091130190911401B7010E94420880E00B
:1006900090E00E94D6008EE20E94AF00809113018C
:1006A00090911401B7010E944208BC0180E090E0E3
:1006B0000E94D6008DEC90E00E94B10089818823D1
:1006C00009F4BBCFC8010E9495021982B6CF8130D0
:1006D00041F028F0823039F43E9A3F9A04C03E98A7
:1006E00001C03E9A3F9886B1887F86B986B1682B53
:1006F00066B93D98379A089597B1907E97B997B1AA
:100700008F71982B97B9369A3699FECF84B195B1EF
:10071000937008951F920F920FB60F9211242F938A
:100720003F934F935F936F937F938F939F93AF9379
:10073000BF93EF93FF93E091F600F091F7003097AD
:1007400009F00995FF91EF91BF91AF919F918F9122
:100750007F916F915F914F913F912F910F900FBEBD
:100760000F901F901895982F97708695869586956F
:100770006130E9F120F0623009F479C008958130E8
:1007800091F028F08230D9F0833029F108954AB3EE
:1007900021E030E0B90102C0660F771F9A95E2F7B9
:1007A000CB01842B38C047B321E030E0B90102C04F
:1007B000660F771F9A95E2F7CB01842B3AC044B3BA
:1007C00021E030E0B90102C0660F771F9A95E2F789
:1007D000CB01842B3CC041B321E030E0B90102C021
:1007E000660F771F9A95E2F7CB01842B3EC08130CC
:1007F000A1F028F08230F9F0833059F108954AB31E
:1008000021E030E0B90102C0660F771F9A95E2F748
:10081000CB01809584238ABB089547B321E030E063
:10082000B90102C0660F771F9A95E2F7CB01809558
:10083000842387BB089544B321E030E0B90102C0AE
:10084000660F771F9A95E2F7CB018095842384BBCE
:10085000089541B321E030E0B90102C0660F771F6F
:100860009A95E2F7CB018095842381BB089581306E
:10087000C1F028F0823039F18330B9F108954AB3DC
:1008800021E030E0B90102C0660F771F9A95E2F7C8
:10089000CB01962F909594239ABB9BB3892B8BBB4E
:1008A000089547B321E030E0B90102C0660F771F19
:1008B0009A95E2F7CB01962F9095942397BB98B326
:1008C000892B88BB089544B321E030E0B90102C010
:1008D000660F771F9A95E2F7CB01962F9095942398
:1008E00094BB95B3892B85BB089541B321E030E0DB
:1008F000B90102C0660F771F9A95E2F7CB01962FD8
:100900009095942391BB92B3892B82BB0895982F25
:1009100097708695869586956130C1F5813091F006
:1009200028F08230D9F0833029F108954BB321E0CB
:1009300030E0B90102C0660F771F9A95E2F7CB014C
:10094000842B3AC048B321E030E0B90102C0660F01
:10095000771F9A95E2F7CB01842B3CC045B321E089
:1009600030E0B90102C0660F771F9A95E2F7CB011C
:10097000842B3EC042B321E030E0B90102C0660FD3
:10098000771F9A95E2F7CB01842B40C061113FC0DD
:100990008130A1F028F08230F9F0833059F10895C8
:1009A0004BB321E030E0B90102C0660F771F9A9582
:1009B000E2F7CB01809584238BBB089548B321E0F7
:1009C00030E0B90102C0660F771F9A95E2F7CB01BC
:1009D0008095842388BB089545B321E030E0B901B8
:1009E00002C0660F771F9A95E2F7CB0180958423AA
:1009F00085BB089542B321E030E0B90102C0660F23
:100A0000771F9A95E2F7CB018095842382BB0895E6
:100A1000813041F028F0823039F0833039F0089588
:100A20006BBB089568BB089565BB089562BB0895CC
:100A30000F931F93CF9302ED10E0C0E0F801619196
:100A40008F018C2F0E94B303CF5FC032B9F7CF91D3
:100A50001F910F9108951F920F920FB60F921124BC
:100A60002F933F934F935F936F937F938F939F93B6
:100A7000AF93BF93EF93FF93E091FC00F091FD00E3
:100A8000309709F00995FF91EF91BF91AF919F9138
:100A90008F917F916F915F914F913F912F910F9027
:100AA0000FBE0F901F9018951F920F920FB60F92C6
:100AB00011242F933F934F935F936F937F938F9363
:100AC0009F93AF93BF93EF93FF93E091FA00F09160
:100AD000FB00309709F00995FF91EF91BF91AF911D
:100AE0009F918F917F916F915F914F913F912F9146
:100AF0000F900FBE0F901F9018951F920F920FB678
:100B00000F9211242F933F934F935F936F937F9393
:100B10008F939F93AF93BF93EF93FF93E091F80070
:100B2000F091F900309709F00995FF91EF91BF918D
:100B3000AF919F918F917F916F915F914F913F9175
:100B40002F910F900FBE0F901F9018958230D9F003
:100B500050F4882379F0813071F58FB58E7F8FBD89
:100B60008FB58D7F21C08330D1F0843021F58FB5D2
:100B7000816017C08FB58E7F8FBD8FB58D7F8FBD84
:100B80008EB5877F08C08FB58E7F8FBD8FB58D7F67
:100B90008FBD8EB588608EBD8EB58F7E0BC08FB534
:100BA0008E7F8FBD8FB582608FBD8EB588608EBD04
:100BB0008EB580618EBD8EB5887F8EBD8EB5682B5B
:100BC0006EBD0895813049F028F0823061F08330A5
:100BD00069F008958FB58F7E02C08FB580618FBD9B
:100BE0008FB58F7D08C08FB58F7E02C08FB58061B5
:100BF0008FBD8FB580628FBD089599BD88BD089562
:100C000097BD86BD08951F920F920FB60F921124C3
:100C10002F933F934F935F936F937F938F939F9304
:100C2000AF93BF93EF93FF93E0910801F091090117
:100C3000309709F00995FF91EF91BF91AF919F9186
:100C40008F917F916F915F914F913F912F910F9075
:100C50000FBE0F901F9018951F920F920FB60F9214
:100C600011242F933F934F935F936F937F938F93B1
:100C70009F93AF93BF93EF93FF93E0910601F091A1
:100C80000701309709F00995FF91EF91BF91AF915E
:100C90009F918F917F916F915F914F913F912F9194
:100CA0000F900FBE0F901F9018951F920F920FB6C6
:100CB0000F9211242F933F934F935F936F937F93E2
:100CC0008F939F93AF93BF93EF93FF93E0910401B2
:100CD000F0910501309709F00995FF91EF91BF91CF
:100CE000AF919F918F917F916F915F914F913F91C4
:100CF0002F910F900FBE0F901F9018951F920F927B
:100D00000FB60F9211242F933F934F935F936F93DE
:100D10007F938F939F93AF93BF93EF93FF93E09154
:100D20000201F0910301309709F00995FF91EF91CD
:100D3000BF91AF919F918F917F916F915F914F91F3
:100D40003F912F910F900FBE0F901F9018951F92FB
:100D50000F920FB60F9211242F933F934F935F93EF
:100D60006F937F938F939F93AF93BF93EF93FF9373
:100D7000E0910001F0910101309709F00995FF9190
:100D8000EF91BF91AF919F918F917F916F915F9103
:100D90004F913F912F910F900FBE0F901F9018957C
:100DA0001F920F920FB60F9211242F933F934F93E0
:100DB0005F936F937F938F939F93AF93BF93EF93C3
:100DC000FF93E091FE00F091FF00309709F0099544
:100DD000FF91EF91BF91AF919F918F917F916F9113
:100DE0005F914F913F912F910F900FBE0F901F90E9
:100DF0001895599880B5806880BD8091F200813047
:100E000061F028F0823079F480B5806108C080B547
:100E10008F7E80BD80B58F7D05C080B58F7E80BD03
:100E200080B5806280BD8091F300811103C080B5E0
:100E3000877F04C0813019F480B5886080BD8091BF
:100E4000F4008230E1F038F4882389F0813001F534
:100E500080B582600EC08330A9F08430C9F480B5BB
:100E6000826080BD80B5846080BD529A11C080B51B
:100E70008D7F80BD80B58B7F80BD529809C080B5C5
:100E80008D7F02C080B5826080BD80B58460F4CF64
:100E9000E091F5008E2F90E08E309105E8F4FC0192
:100EA000E65DFF4F0C9497088FEC01C087E689B987
:100EB00013C083E3FCCF82E2FACF89E1F8CF80E16F
:100EC000F6CF8CE0F4CF88E0F2CF86E0F0CF83E07D
:100ED000EECF81E0ECCF19B8539A549A08955D9BF8
:100EE000FECF8CB908958CB10895579A08959093C8
:100EF0000D0180930C0108951F920F920FB60F926F
:100F000011242F933F934F935F936F937F938F930E
:100F10009F93AF93BF93EF93FF93E0910E01F091F6
:100F20000F01309709F00995FF91EF91BF91AF91B3
:100F30009F918F917F916F915F914F913F912F91F1
:100F40000F900FBE0F901F9018951F920F920FB623
:100F50000F9211242F933F934F935F936F937F933F
:100F60008F939F93AF93BF93EF93FF93E0910C0107
:100F7000F0910D01309709F00995FF91EF91BF9124
:100F8000AF919F918F917F916F915F914F913F9121
:100F90002F910F900FBE0F901F9018951F920F92D8
:100FA0000FB60F9211242F933F934F935F936F933C
:100FB0007F938F939F93AF93BF93EF93FF93E091B2
:100FC0000A01F0910B01309709F00995FF91EF911B
:100FD000BF91AF919F918F917F916F915F914F9151
:100FE0003F912F910F900FBE0F901F901895CF93A8
:100FF000DF9380911001C0911101D0911201C80FAF
:10100000D11D0E947307888380911001E091110126
:10101000F0911201E80FF11D9081933221F41082BA
:101020001092100103C08F5F80931001DF91CF9168
:1010300008950F931F93CF938C01C0E0F801EC0F3C
:10104000F11D8081882321F00E946F07CF5FF6CFCA
:10105000CF911F910F9108959093120180931101E8
:101060000E94750787EF97E00C947707991B79E04A
:1010700004C0991F961708F0961B881F7A95C9F728
:1010800080950895AA1BBB1B51E107C0AA1FBB1F77
:10109000A617B70710F0A61BB70B881F991F5A9504
:1010A000A9F780959095BC01CD010895A1E21A2E73
:1010B000AA1BBB1BFD010DC0AA1FBB1FEE1FFF1FFC
:1010C000A217B307E407F50720F0A21BB30BE40B4C
:1010D000F50B661F771F881F991F1A9469F7609593
:1010E0007095809590959B01AC01BD01CF0108954D
:1010F000052E97FB1EF400940E948F0857FD07D021
:101100000E94560807FC03D04EF40C948F085095AB
:101110004095309521953F4F4F4F5F4F08959095E3
:101120008095709561957F4F8F4F9F4F0895EE0F7B
:10113000FF1F0590F491E02D0994A29FB001B39F89
:10114000C001A39F700D811D1124911DB29F700DD0
:10115000811D1124911D0895FB01DC018D910190E9
:0E11600080190110D9F3990B0895F894FFCF70
:10116E00736572766F006C6364006C65646F6E00FD
:10117E006C65646F66660074656D700054656D70A5
:10118E0065726174757265203D20007072657373AF
:10119E00757265005072657373757265203D20001F
:1011AE004B504100556E646566696E656420436FF1
:1011BE006D6D616E640054656D703A2000507265FD
:1011CE00733A20006B5041004E756D3A002020207E
:1011DE0020000101000000000000000000000000DF
:1011EE0000000000000000000000010000000000F0
:0611FE00000000000302E6
:00000001FF
